:020000040800F2
:1000000080360020291500083D3D00081515000820
:10001000151500081515000815150008000000004A
:100020000000000000000000000000008115000832
:10003000151500080000000005170008C12400087D
:100040007D1700087D1700087D1700087D17000840
:100050007D1700087D1700087D1700087D17000830
:100060007D1700087D1700087D1700087D17000820
:100070007D1700087D1700087D1700087D17000810
:100080007D1700087D1700087D1700087D17000800
:100090007D1700087D1700087D1700087D170008F0
:1000A0007D1700087D1700087D1700087D170008E0
:1000B0007D1700087D1700087D1700087D170008D0
:1000C0007D1700087D1700087D1700087D170008C0
:1000D0007D1700087D1700087D1700087D170008B0
:1000E0007D1700087D1700087D1700087D170008A0
:1000F0007D1700087D1700087D1700087D17000890
:100100007D1700087D1700087D1700087D1700087F
:040110007D1700084F
:1001140053B94AB9002908BF00281CBF4FF0FF316A
:100124004FF0FF3000F00CB8ADF1080C6DE904CECF
:1001340000F010F8DDF804E0DDE9022304B07047B4
:10014400704700BF034613F8012B002AFBD1181A8D
:10015400013870472DE9F0478C468E46089E1546B7
:1001640004461946002B40F0D080724547D9B2FAB4
:1001740082F74FB1C7F120030EFA07FC20FA03F30C
:10018400BD4043EA0C0CBC404FEA154EA8B2BCFB80
:10019400FEF8230C0EFB18CC08FB00F943EA0C43D1
:1001A400994528D9EB1808F1FF3204D2994502D9B0
:1001B400A8F102022B44A3EB0903A4B2B3FBFEFC97
:1001C4000EFB1C330CFB00F044EA0344A04214D998
:1001D4002C190CF1FF3304D2A04202D9ACF1020372
:1001E4002C44241A43EA02401EB1FC40002334602C
:1001F4007360BDE8F0874246DDE76346F1E7002A15
:1002040079D0B2FA82F3002B3FD01946C1F1200312
:1002140002FA01F52EFA03F20EFA01FE20FA03F3B4
:1002240043EA0E034FEA154E00FA01F4B2FBFEFC5A
:10023400AFB20EFB1C201A0C0CFB07F842EA00427A
:1002440090455AD9AA180CF1FF3004D2904502D92E
:10025400ACF102002A44A2EB08029BB2B2FBFEFC02
:100264000EFB1C220CFB07F743EA02439F4246D9CC
:10027400EB180CF1FF3204D29F4202D9ACF1020216
:100284002B44DB1B42EA004202E0AEEB02030122F4
:100294004FEA154EAFB2B3FBFEFC200C0EFB1C3331
:1002A4000CFB07F840EA034398452AD9EB180CF1F4
:1002B400FF3004D2984502D9ACF102002B44A3EBE1
:1002C4000803A4B2B3FBFEFC0EFB1C330CFB07F7C4
:1002D40044EA0344A74216D92C190CF1FF3304D283
:1002E400A74202D9ACF102032C44E41B43EA0040C8
:1002F4000F46114678E71F2188E76046ABE7624660
:10030400BFE76046DBE76346EFE7734506D916B9F6
:10031400002108466DE7C6E9000EF9E7B3FA83F752
:1003240087B9734501D3824207D8841A6EEB03035D
:1003340001209C461EB900215BE73846FAE7C6E96E
:10034400004CF8E7C7F1200CBB4022FA0CF51D4322
:1003540020FA0CF12EFA0CF30EFA07FE41EA0E0114
:100364004FEA154900FA07F4B3FBF9F81FFA85FEC2
:1003740009FB18300B0C08FB0EFA43EA00439A45BC
:1003840002FA07F240D9EB1808F1FF3004D29A457B
:1003940002D9A8F102002B44A3EB0A0389B2B3FBF0
:1003A400F9F809FB183308FB0EFE41EA03418E45B8
:1003B4002CD9691808F1FF3304D28E4502D9A8F16B
:1003C4000203294443EA0040A0FB0298A1EB0E017A
:1003D4004145CE46434602D306D14C4504D2B9EB3F
:1003E400020E68EB05030138002EA4D0B4EB0E0214
:1003F40061EB030101FA0CFC22FA07F34CEA030354
:10040400F940C6E9003196E74046C5E74346D9E7D7
:10041400F0B58BB003F08CFA002403F08AFA494B50
:1004240049490293032223462046CDE9004403F0C0
:100434005CFA03F07CFA07A800F06AFE0546434F15
:1004440041493B681A1A534253410493404B039366
:100454000826404B0293CDE9004623460422204659
:1004640003F043FA3B68AB420AD03B4B3649009455
:10047400CDE9014301222346204603F036FAFEE784
:10048400099B0393354B30490094CDE90143032282
:100494002346204603F029FA079B2B49DA8A059262
:1004A4005A7D04921B7D03932D4B0094CDE90143A7
:1004B40003222346204603F018FA2A4B22490094CB
:1004C400CDE9014303222346204603F00EFA9DF8AA
:1004D400200006A900F050F8054668B1224B0393AA
:1004E400224B0490CDE9016317490094234604226A
:1004F400204603F0FAF9FEE7069A099B1C4C1344C4
:10050400079A12891344236004F01FF900F03CFE9B
:1005140001F022F823681B6883F3088885F31488A4
:10052400BFF36F8FBFF36F8F23685B689847114BDE
:1005340005490095CDE9015301222B46284603F0D5
:10054400D4F9FEE79A520008984F0008A00300204F
:1005540046560008AE520008D2520008F052000875
:100564001A530008335300083E560008535300083A
:1005740028030020805300087FB5002378B10A4A7D
:100584000A490093CDE90303CDE90132184601225B
:1005940003F0BBF96FF0150007B05DF804FB4FF0F2
:1005A40000630B60F8E700BF9E530008984F0008F3
:1005B4002DE9F04F91B08407009302F004030293F5
:1005C400C2F3C20303F10103DDF868A003920546F8
:1005D4000E46059340F09D81041D00284AD101F088
:1005E4000706341DC6F10806009B00275A1E4FF06B
:1005F40004084FF0FF3301930497B946BB464346C2
:100604000DB1009921600598002800F3D780904827
:100614000099814203D38F488142C0F0CF8003996F
:1006240011F0020CA4EB050040F0D680B9F10F0FD5
:1006340000F2CF80002D00F0D68009F140010DEBCF
:10064400010EC0F3870001990EF8200C0EF8101C5F
:10065400BCF1000F00F0C38060F07F000EF8200CA6
:10066400013709F10109C5F10801043406914FF677
:10067400DA7E8CE00729B7D86FF01B0011B0BDE813
:10068400F08F7A285BD84B280FD8472857D82928C9
:100694002ED8252850D052D8202818BF23280CBF84
:1006A4004FF0010B4FF0000B71E04C382E2846D868
:1006B400DFE800F06D45454545454545454545451B
:1006C4004845454545454545455645484856565689
:1006D4006D486A456D4518481845457F7C48454531
:1006E40048457C0000204FF0000B4FF0040835E033
:1006F4002A38C0B2012101FA00F010EA0E0F46D1E7
:1007040010F0625C2CD110EA010B40D06046013C31
:100714004444B4FBF8F408FB04F425B1A3EB050C42
:10072400A444B445A8D8002870D00599013905918E
:100734005AF8041B009163E70199013901914FF0C4
:10074400000B24E012F8010C6C2834D112F8023C9E
:1007540000206C2B8346C8D14FF008084346D6E7E7
:100764000AF1070A2AF0070A0734FAE802BC24F05F
:10077400070435B106982044B0423FF67DAFC4E982
:1007840000BC08344FF0000B4FF00808434612F841
:10079400010F002853D0BBF1000F7FF472AF25285E
:1007A400F5D1019B013301934FF0010B4FF0040885
:1007B400ECE7584697E700208346A8E703998807A3
:1007C4007FF551AF601B4FF0010CB0F5007FFFF4D3
:1007D4002DAF6FF0150051E74FF0000CF5E70498CA
:1007E400013004903DE7BCF1000F01D0013638E739
:1007F4000298023600287FF434AF0098CDE906321F
:10080400FFF7A0FCDDE9063206442AE7042B08D1F1
:100814000AF1040015B1DAF80010216004348246AC
:10082400B5E70AF1070323F0070303F1080A1DB132
:10083400D3E90001C4E9000108340823A7E7631BD6
:10084400B3F5806FC5D23DB9A6F10804E01815E7E9
:10085400DC4B0008A4560008029A28609B082B7001
:100864009DF81030AAB1EB70AF702FB108A8002228
:10087400C5F1010C91450ED1C5F101030DF120081C
:100884004FF0000A01930DF1300BD14512D1601BDA
:10089400F4E66B70E8E710F8013B190608D50CEB99
:1008A400040EB64503F07F033FF6E6AE04F8013BC1
:1008B4000132DFE71FB198F90020002A17DB029B01
:1008C400D3B11AF80B2004F8012B0022019B18194C
:1008D4001044B0423FF6D0AE98F8000004F8010B83
:1008E40000990392204604F043F9039A14440AF150
:1008F400010A08F10108C8E798F8002055F82230E9
:100904000093029B45F822300098FFF71BFC421C21
:10091400DCE76FF00D00B1E6014B1860704700BFD3
:100924000001002080B505460E461746984602F0A1
:100934004DFC034600F032FFDFF81890044649F8F6
:100944000030424630463946A84754F8090000F0C2
:10095400C1FE00BF080000004FF0B04382B09A6CA3
:1009640042F001029A649B6C054A03F0010301936F
:10097400019B5368002043F00203536002B07047A8
:10098400002004E008B54168054883681B680C3101
:100994001BB1984700EAE07008BD6FF05700F9E713
:1009A4005C4C0008192810B502D90024204610BD5B
:1009B400044B53F82040204603F064FF0028F5D18F
:1009C400F3E700BF14500008EFF31180102383F302
:1009D4001288BFF36F8F094B1A683AB9084A116835
:1009E40041F4807111601168C905FCD51A6801329F
:1009F4001A6080F31188BFF36F8F70477003002073
:100A040000040058EFF31180102383F31288BFF31E
:100A14006F8F114B1A689AB9BFF35B8F0F4B01228A
:100A240053E8001F002904D143E8002CBCF1000F57
:100A3400F6D1BFF35B8F80F31188BFF36F8F7047DC
:100A4400012A01BF06490A6822F480720A601A6802
:100A5400013A1A60EFE700BF700300206C03002026
:100A640000040058084B1A6842F400721A601A68AD
:100A740042F480621A601A6842F480721A60034B6E
:100A8400034A1A60704700BF004000584C01002020
:100A940000093D002DE9F84F814631480F4603F027
:100AA40019F8064600284ED0BDE8F88F237B8BB199
:100AB4002368DB680BB120469847636883F806A077
:100AC40023681B69002B36D1636804221968204609
:100AD40003F025F8013610345C45E7D3B9F1000F73
:100AE400E2D04FF0010A002DDED0A94695FAA5F414
:100AF400B4FA84F40AFA04F3260108EB04146FEA46
:100B0400030B25EA0305237B63B158F806301B6900
:100B14000BBB4644042273682046196809EA0B0992
:100B240002F0FDFF002DE1D11FB16420002103F08C
:100B34004EFF4D46D7E7204698470028C4D00AFA0E
:100B440006F31D43C6E7074CDFF81CB00546A04674
:100B54004FF0010AC0E7204698470028E2D1D8E7C1
:100B64007C030020A04F0008B04F0008014B53F84D
:100B7400200070477C50000808B5034608462BB196
:100B8400044A136000F0F2F9002008BD6FF015006C
:100B9400FBE700BF040100200C4A0D48002310B5F8
:100BA40013700C4A13600C4A4FF47A711360FFF708
:100BB400E3FF0A4B0A4918468B4200D310BD1A1AA8
:100BC4005C681211013222711033F5E7B004002081
:100BD400C93A00087403002078030020A04F0008DD
:100BE400B04F000870B50B4D297841B90120FFF7CB
:100BF40051FF094C094EB44202D301232B7070BD3E
:100C040063685B791BB1236820469B68984710345E
:100C1400F1E700BFB0040020A04F0008B04F000867
:100C240010B50446084802F055FF5CB1BFF35B8F72
:100C3400064B53E8001F013943E80012002AF8D19B
:100C4400BFF35B8F10BD00BF740300207803002046
:100C540070B50A4B0A4C1B680A4E05469847A860B3
:100C6400B44200D370BD63685B7923B1236829461D
:100C74001B68204698471034F2E700BF04010020A7
:100C8400A04F0008B04F0008044A054B9B1AB1EB73
:100C9400D30F34BF52F8310000207047984F00083A
:100CA400A04F0008406820B1034BC01A40F3CF00A6
:100CB40070474FF0FF307047984F00080EB403B5EB
:100CC40003AB014653F8042B0448019300F0D0FE13
:100CD40002B05DF804EB03B0704700BF0F3C00089E
:100CE400CA0605D48B064CBF02490349FFF7E6BF89
:100CF400704700BFF8530008F75300082DE9F04F80
:100D040087B004469DF84890DDF850A0169F0492E1
:100D14000D469846B9F1000F00F0B08007F48073D7
:100D2400059302F0FAFE07F0020B0246002874D085
:100D34007A492046FFF7C2FF0646BBF1000F08D0F0
:100D440017F0440F6BD176492A462046FFF7B6FFC9
:100D5400064407F0010353B1724B734953F8292039
:100D6400724B2046002A08BF1A46FFF7A7FF07F474
:100D74008073002B07F0080318BF4FF00008002B06
:100D840079D06B4B6B4953F829202046FFF796FF27
:100D94000546049B2BB168491A462046FFF78EFF8F
:100DA4000544B8F1000F05D0644942462046FFF7D8
:100DB40085FF054462483544139B1BB161492246B3
:100DC40002F0B8FD159B002B00F08D80DDF85480F7
:100DD4003946B8F1100F204628BF4FF01008FFF72E
:100DE4007FFF0026B5424FDC002633461AF8032065
:100DF40055492046FFF762FF0136102E4AD071078D
:100E040003D152492046FFF759FFB0453346EDD888
:100E14004F492046FFF752FFEEE706468DE74D4B5C
:100E24001868002894D04C4B4FF47A7B1B68B5FBB0
:100E3400F3F54FF46163B5FBF0F100FB11550BFBC7
:100E440005F54FF03C0CB1FBF3F203FB1211B5FBBB
:100E5400F0FEB1FBFCF300FB1E550CFB13110BFB66
:100E640005F50091B5FBF0F53C49CDE901E52046D7
:100E7400FFF724FF6CE707F008058AE7012B0CBF96
:100E84002F4837484D4697E730492046FFF716FF6D
:100E94000136A7E7334920460026FFF70FFF334604
:100EA4001AF803203049A2F120035F2B28BF2E2219
:100EB4002046FFF703FF0136102E0DD0720703D131
:100EC40022492046FFF7FAFEB0453346E8D81F49C9
:100ED4002046FFF7F3FEEEE7159BB3EB0803C2448D
:100EE40015937FF473AFB9F1000F0AD0FB0704D553
:100EF4000E4A0D492046FFF7E1FE39462046FFF72A
:100F0400EFFE6268A1682068D2E9002302F06FFE58
:100F1400636800221A6007B0BDE8F08FFF53000831
:100F2400035400088C50000828540008FA530008A1
:100F3400A05000082B540008315400083554000810
:100F44000F3C0008751A00083A540008425400087F
:100F54004054000884030020800300200C5400083F
:100F64002B3C00084454000846540008074A00215A
:100F74000123904206D8064A01B901231360054BA8
:100F84001860704740085B000121F2E740420F00FF
:100F94008003002084030020014B01221A70704753
:100FA400B1040020014B0020196070479C0300200D
:100FB40010B5064B18680C46FFF7D8FD21460346CA
:100FC400BDE8104002480E22184700BF9C030020D1
:100FD400D0500008F8B5094D094B0A4ED5E9004731
:100FE40001221A700CB92C60F8BD214630463A46ED
:100FF40000F00AF8241A0644F4E700BF9003002026
:10100400B2040020B3040020F8B5194D07460E467B
:10101400042432463946002001F086FCC8B101237D
:101024002B70144B1B782BB93046F8BD5CB92C706F
:101034004FF0FF34002001F007FD0028F4D02B7896
:10104400002BF3D1F0E7013C41F2883003F0F4FBCC
:10105400F0E72B7813B1013C04D12C702B78002BD2
:10106400D7D1E1E741F2883003F0E6FBF6E700BFB1
:10107400B1040020B2040020014B0360002070473B
:10108400E050000870B5104B1C680D46B4B10F4B0E
:10109400196800238B4202DB6FF0010070BD224609
:1010A40012F8106B864202D001331446F2E7E0686E
:1010B40003F0E8FB28B12C600020EFE76FF00C0090
:1010C400ECE76FF01200E9E708010020E0500008A7
:1010D40010B500F1200186B00120FFF7D3FF0446CC
:1010E40068B1084B0393084B029308220023CDE90F
:1010F4000032049005490422184602F0FBFD204604
:1011040006B010BD5356000869540008984F0008F3
:10111400F0B5164B164D1E68164B174985B00822BC
:101124000393164B02930023CDE9003204460422B4
:10113400184602F0DFFD2846FFF7CAFF78B9104FC2
:10114400286A394601F04EFB48B90E4B286A1E68DE
:1011540002F0EBFB20712B6A5B68A36027600448F4
:1011640002F0D9FD304605B0F0BD00BF0C010020EF
:10117400A40300204B560008984F00089754000819
:10118400B4040020A0030020BFF36F8F72B6124B8B
:101194004FF0FF32C3F88020C3F88420C3F88820BE
:1011A400C3F88C20C3F89020C3F89420C3F8982087
:1011B400C3F89C20C3F88021C3F88421C3F8882194
:1011C400C3F88C21C3F89021C3F89421C3F8982163
:1011D400C3F89C21704700BF00E100E008B5044853
:1011E40002F0DBFBBDE80840024802F0D6BB00BFBA
:1011F400B2540008D854000808B50348034A002133
:10120400121A02F08BFD08BD88010020D8040020CA
:101214000748084A084908B5121A02F081FD074830
:10122400074A0849BDE80840121A02F079BD00BF18
:101234000001002084010020AC560008F8000020C2
:1012440000010020A456000830BFFFF7FDBF00BF17
:101254002DE9F0410B4EDFF8308006EB0807CC1B7C
:10126400054632460949204603F082FCA01942464D
:101274000021083C03F08AFC2C6707F10800BDE854
:10128400F08100BF0000000004000000B04F00081F
:1012940070B5204B15469A6A12F0100F9A6A14BF63
:1012A4001124102412F0080F9A6A18BF122492070E
:1012B40006460AD5586B9A6A140628D519B19A6A53
:1012C40022F080029A62132401E06FF01500114BA2
:1012D4009A6A12F0010F9A6A18BF1424D10602D434
:1012E4009B6A9A070AD50B4B5B681B0506D53146EA
:1012F40000F0A6F910B180F309880224054A936A24
:1013040043F0FF03936200232B70204670BD6FF0FF
:101314001500D8E700ED00E0134B9A6A12F0007F45
:101324009A6A14BF1E201D2012F0807F9A6A18BF8B
:101334001F2012F4002F9A6A18BF212012F4802F64
:101344009A6A18BF222012F4003F9A6A18BF232019
:1013540012F4803F9A6A6FEA02426FEA12429A627A
:1013640018BF2420704700BF00ED00E010B5164BF5
:101374009A6A9C6A12F4805F14BF1722162214F42E
:10138400006F9C6A18BF1822A40509D59A6B9A6A43
:10139400120404D518B19A6A22F400429A621922FE
:1013A400094B986A10F4806F986A18BF1A2210F4D7
:1013B400807F986A40F47F4098624FF000030B707E
:1013C4000CBF10461B2010BD00ED00E0F0B5494BEA
:1013D4005B688BB00446C3F30803002585F31188CA
:1013E400BFF36F8F02F07F40B0F17F4F11D102F055
:1013F4000C0008280DD010074CBF0C460125002214
:10140400033B8DF80720032B05D8DFE803F024689D
:101414006C652C46F3E700239DF80720CAB902AE99
:1014240004F1200720686168324603C20834BC42D4
:101434001646F7D1099A002D59D0C2F3080121B9F3
:101444006FEA52226FEA4222099202A9184602F078
:1014540069FC0BB0F0BD274BDA6A9107DBD4DA6A7A
:10146400002AD8DBDA6A5200D5D55A69A16942F458
:1014740080725A61BFF34F8FBFF36F8F31F8022C24
:10148400596921F480715961BFF34F8FBFF36F8F96
:1014940002F47F43B3F55F4F04D1D2B2022A01D1E3
:1014A4002368B9E7134B9A6AD2B23AB10DF1070235
:1014B40001212046FFF7ECFE0346ADE79A6A12F4D9
:1014C4007F4F05D00DF107010120FFF74FFFF3E730
:1014D4009B6AB3F5803F9ED3FFF71EFFECE70DF147
:1014E40007020021E5E70DF107010020EDE76FF3A6
:1014F4000802A9E700ED00E0044B5A6942F010022B
:101504005A615A6922F008025A61704700ED00E0FE
:10151400EFF30880EFF3098101B57246FFF756FF38
:1015240001BD00BF0A4880F30888102080F31188A9
:1015340008484FF40461401880F30988EFF31480DD
:101544000221084380F31488BFF36F8F02F0FFFB7E
:1015540080360020000500200749D1F890200023A0
:10156400C2F307221846934200DB7047C1F8983053
:10157400C1F8A0000133F6E700ED00E01EF0040F0F
:101584000CBFEFF30880EFF30980816911F8021CA6
:101594000229FFD001B5724602F0CAFB01BD00BFAB
:1015A40040B2002807DB044A4109012300F01F0070
:1015B400834042F82130704700E100E040B2002847
:1015C400A8BF00F1604001F10101B8BF064B4FEA2A
:1015D4000111ACBF00F5614000F00F00C9B2B4BF07
:1015E400195480F80013704714ED00E0044B054AC9
:1015F40023F07F039360BFF34F8FBFF36F8F704768
:101604000000000800ED00E042F8203C009B42F896
:101614001C3C0A49019B42F8183C029B42F8143CCA
:1016240021F001014FF0807342F8043C42F8081C99
:101634000023203A02654367704700BF2909000868
:10164400094A0346906870B113F1160F006E05D075
:10165400A0F14002934205D3834203D2814228BFC2
:1016640000207047002070478404002008B5154608
:101674000B4A0C4B9060026F1A600E4600F0A0F803
:101684002C4686F309880020034B98472046002106
:1016940000220023014C20476F3D0008290900085F
:1016A40084040020D8030020014B10221A617047E3
:1016B40000ED00E0054B5A699B689A421FBF044A3B
:1016C400536843F080535360704700BF8404002084
:1016D40000ED00E0084B9B6883420BD1EFF30583D8
:1016E40043B1064B5A6842F080525A605A6A22F457
:1016F40000425A6201F070BD8404002000ED00E055
:1017040014498A684FF030001044EFF3098C80E8E4
:10171400F01F102080F31288BFF36F8F0E4F4FF02D
:1017240000664A698A603E60106F0C4C2060506FFE
:101734000023536780F3118804B5104600F040F885
:10174400BDE8044002F1300090E8F01F8CF30988F2
:10175400704700008404002004ED00E0D80300205A
:10176400044800231021C2180133352B82F80013DA
:10177400F9D1704700E100E008B5EFF30583064AAC
:10178400103B02EBC30152F8330049688847BDE8B7
:101794000840FFF78FBF00BF744D00080148006880
:1017A40070470000D8030020024B034A034801217C
:1017B40000F076B800000120000000202451000849
:1017C400036E054A403B1360044B4021C2E90113F8
:1017D4001046012100F06EB8DC03002000000B1558
:1017E400084AC2F898000B6823F01F03034343F030
:1017F4001003C2F89C308B6843F00103C2F8A03098
:10180400704700BF00ED00E02DE9F043DFF8608091
:1018140085B00E461F4604464FF00009B14523DA51
:101824006068D8B13FB1411E08421BD11F2819D9A5
:101834002368194216D12368019302F0AAFAA36817
:1018440003430393D8F89050C5F30725D0B2013D64
:10185400A84207D801A9FFF7C3FF421C09F10109F7
:101864000C34DBE76FF01502104605B0BDE8F083D9
:1018740000ED00E0044B0522C3F89420BFF34F8F22
:10188400BFF36F8F704700BF00ED00E0BFF35F8FC1
:10189400024B0022C3F89420704700BF00ED00E023
:1018A40010B5034C01232278FFF7AEFF207010BD62
:1018B400D404002008B50B4A00231278FFF7A4FFD4
:1018C40010F1160F07D0084A0021D2F89030C3F364
:1018D4000723984200DB08BDC2F89800C2F8A010A4
:1018E4000130F2E7D404002000ED00E02DE9F043DC
:1018F4005A4B5B4DD3F890302C68C3F307239C42BA
:1019040085B000F2A780FFF7C1FF00200C268442B7
:101914001AD1544EDFF8449134706846FFF7ACFB9B
:10192400514C524D80460027B84514D133784B4969
:101934000020D1F89020C2F307229342C0F28480A1
:10194400FFF798FF002045E0696806FB0011FFF7E8
:1019540047FF0130DBE7009800EB07114FEA071C53
:10196400CB682340B3F5000F4DD00AD8B3F5001F60
:1019740033D0B3F5800F3BD0B3F5801F13D00137BC
:10198400D2E7B3F1007F47D0B3F1805F4DD0B3F11C
:10199400807FF4D150F80C3088684A6802F0F9F975
:1019A40040F0887009E050F80C3088684A6802F00A
:1019B400F0F940F0885040F43020CDE90123039041
:1019C400D9F890303078C3F30723013B984234D9D7
:1019D4006FF0150005B0BDE8F08350F80C3088684E
:1019E4004A6802F0D6F940F0885040F40020E4E759
:1019F40050F80C3088684A6802F0CBF940F0007067
:101A040040F40030D9E750F80C3088684A6802F096
:101A1400C0F940F08270D0E750F80C3088684A680A
:101A240002F0B7F940F48020C7E750F80C3088681A
:101A34004A6802F0AEF92843BFE701A9FFF7D0FED8
:101A44003378013333709AE7C1F89830C1F8A000B5
:101A540001336EE74FF0FF30BCE700BF00ED00E05C
:101A640030510008D40400200000F0FF00000211EF
:101A7400F0B587B007460E4614460021102268468A
:101A84001D4603F083F802238DF802302A46054BE5
:101A9400019321466846CDE9047601F0EDFD07B0D7
:101AA400F0BD00BFB73D000808B5024B1B6898475E
:101AB400002008BDE8030020034B044A1860937813
:101AC40043F0020393707047E803002010010020E4
:101AD40007B5084A92E80300CDE900010648826888
:101AE400126822B16946904703B05DF804FB6FF0B9
:101AF4005700F9E7B04F00085C4C00083F280DD8A8
:101B040000F01F0201239340054A1F2894BFD268A6
:101B1400D26A93430CBF0120002070470020704715
:101B24000008005800F01F0201233F2803FA02F3C3
:101B340007D81F28044A02D8D36000207047D36214
:101B4400FBE76FF01500704700080058044B184479
:101B5400002301338B4200F8012BFADB704700BFEE
:101B64005C0100202DE9F041104F054600264FF09E
:101B740001086B78F4B2A34201D8BDE8F0812B7858
:101B84001C442046FFF7BAFF68B12046FFF7CAFF9E
:101B940057F834303BB107EBC40204F01F0451681A
:101BA40008FA04F098470136E3E700BFEC0300208D
:101BB400034670B1B0FA80F2C2F11F02D2B20649F4
:101BC4008856064AD2F880100B43C2F88030FFF7DB
:101BD400E7BCFF22F3E700BF5C01002000080058C7
:101BE400034AD2F8803023EA0003C2F880307047F9
:101BF40000080058032921D8DFE801F0020C10196D
:101C04000F4B1A6822EA00021A605A6822EA00029C
:101C14005A6070470A4B1A680243F5E7084B5A6842
:101C240002435A601A6822EA00021A607047044BA1
:101C34001A6802431A605A6810435860704700BF1C
:101C44000008005830B5B0B1B0FA80F3C3F11F03F7
:101C5400DBB20B4850F833408C4204D100EBC3058F
:101C64006D68954205D044B940F8331000EBC300C9
:101C74004260002030BDFF23EBE76FF00F00F9E76F
:101C8400EC03002060B1B0FA80F3C3F11F03DBB2B0
:101C9400044A002142F8331002EBC302516070473A
:101CA400FF23F5E7EC03002000F003020432920066
:101CB4000F23934043EA900000F003030233064AE3
:101CC40052F82320030C02EA104093FAA3F3B3FA68
:101CD40083F3D840704700BF0000014038B50B883B
:101CE400C3F30B030B2B0D46144627D813B96FF01F
:101CF400850022E0013B0A2BF9D801A252F823F017
:101D0400571D00086D1D0008311D0008691D0008DD
:101D1400311D0008571D0008571D0008571D0008F5
:101D2400F31C00085D1D00085D1D000800202060F4
:101D34002B68B3F5805F1AD2002038BD03F6B87360
:101D4400C3F30B031C2BD2D80C4A22FA03F3DB0790
:101D5400CDD50B4B1868EAE700F0CCF806235843BE
:101D64004008E4E70748E2E74FF40040DFE7C3F345
:101D740013330133B0FBF3F02060DDE711011111DF
:101D84004C0100200024F40070B5574D02F00CF90A
:101D9400284602F008F900F063FC4FF0B043534AC0
:101DA400D3F8083103F00F0352F823601368B0FB33
:101DB400F6F6B5FBF3F5AE4202D2284600F0BEFCBF
:101DC40002F06EF8012809D04FF0B042136843F4D2
:101DD4008073136002F064F80128FBD1FEF7F4FD70
:101DE4004FF0B043D3F8902042F00102C3F89020A2
:101DF400D3F890209407FBD5D3F8902042F08002CA
:101E0400C3F890204FF0B044D4F890301805FBD5B7
:101E1400FEF7F8FDA36803F00C030C2B1CD102F0B1
:101E24003FF8012807D0236843F48073236002F04D
:101E340037F80128FBD14FF0B0439A6822F003022F
:101E440042F001029A609A6802F00C02042AFAD164
:101E54009A6822F0F0029A604FF0B044236823F0AD
:101E64008073236023689901FCD4E36823F06063E2
:101E740043F00073E360E36843F08073E36000F0D1
:101E84003DF8236843F0807323604FF0B0431A6831
:101E94009201FCD59A6822F0F0029A609A6842F0A6
:101EA40003029A604FF0B042936803F00C030C2BCA
:101EB400FAD1AE4202D3284600F040FC0C4B0A4A49
:101EC4001A604FF0B04300209A6822F4E0629A60EE
:101ED4009A6822F460529A60D3F8082122F00F0223
:101EE400C3F8082170BD00BF006CDC023C5200083E
:101EF4004C010020004870470024F4004FF0B04328
:101F04000A49DA6811400A4A0A43DA60DA68094978
:101F140042F08072DA60DA681140074A0A43DA60F4
:101F2400DA6842F08052DA60704700BF8C80FFF1BB
:101F3400020600028C80FF1F0206002008B5044838
:101F4400FEF7EAFC0248FFF7B7FD002008BD00BF1A
:101F5400591F000873B5104E8DF807000446032579
:101F640001220DF10701002000F054FD20B10123EE
:101F74003370204602B070BD3378002BF9D0013D98
:101F840008D002F0B0FC0028EAD10021142002F0AD
:101F94001EFDE5E73570ECE7D504002000487047E6
:101FA40050510008044BB3F8E0359B020B6000234A
:101FB4004B601846704700BF0070FF1F38B50369B7
:101FC40005461C6849B102F06BF858B12869043021
:101FD40000F08AFE6FF0040038BD6369002B06DB55
:101FE4000020F9E7636943F000436361F8E7034BBA
:101FF400A36003F18833A360F2E700BF23016745C0
:10200400074B186840B90748D0F8E005C0F34E0004
:1020140018604FF4006058600B6001231360704730
:102024006C0400200070FF1F2DE9F843D0F80490E1
:102034000746D9F8080090460D461E4601F00DFFEC
:10204400B8F5001F044616D12846D9F80840FFF712
:102054002BFE84420CD1294601F0FFFE0446FFF713
:10206400BFFD2046FFF70EFE00212046FFF7C2FD0C
:102074000020BDE8F883B8F5800F20D0B6F1806F5A
:1020840019D0B6F1C06F18D0B6F1007F1AD102266C
:102094000F493A462046FFF7D5FDB0B9D9F80810E4
:1020A400284601F0DFFE20463146FFF7A3FD204617
:1020B400FFF77EFDDCE70126EAE70326E8E76FF099
:1020C4008500D6E76FF01500D3E76FF00F00D0E777
:1020D40059440008F8B50C46036941681D68237922
:1020E400012B19D0A3F1020EDEF1000646EB0E0619
:1020F400B6026279022A9CBF474F37F81270A27960
:1021040088BF4FF40057022A09D0042A30D0003B7C
:1021140018BF01231B0306E04FF4C066E9E7B3FAD6
:1021240083F35B091B07E2790968012A0CBF4FF4AA
:10213400407C4FF0000CA5421DD10A6822F0805269
:1021440022F4B05232431A430A604B6823F44053DA
:102154003B434B6043681A68936823F4407343EA33
:102164000C03936029684068BDE8F84002F055BA52
:102174004FF48053D7E7D1F800E00EF4C06E7645F3
:102184001FBFD1F800E02EF4C06E4EEA06060E60C2
:1021940041680E68716801F440518F421FBF716835
:1021A40021F440513943716041680E68316801F08F
:1021B40010218B421FBF316821F010210B43336083
:1021C400436819688B6803F440739C451FBF8B6890
:1021D40023F4407343EA0C038B6043681B68D71EE7
:1021E40099687E427E41C1F380318E4207D0032A32
:1021F4009A680CBF42F4804222F480429A602168BB
:102204002B68994206D0406802F007FA08B923689F
:102214002B60F8BD0020FCE794520008F7B5446831
:1022240006466068216983681B68002B00F087807C
:102234009847002830DB606A01AA002102F020F9E7
:10224400002829DB019B00221979186802F02BF978
:10225400002821DB756833692C681F68236823F024
:1022640001032360A86802F00DFB00286AD0D5E9B9
:1022740002018368DB6803B1984754E8003F43F0E8
:102284000C0344E80032002AF7D139463046FFF700
:1022940021FF18B16FF0150003B0F0BD2B7E1BB108
:1022A400A36843F00803A3606B7E1BB1636843F427
:1022B40000436360AB7E1BB1636843F480336360A7
:1022C400EB7E1BB1636843F4003363602B7F23B35D
:1022D4001E4B9C4207D0A3F574439C4203D003F5E4
:1022E40070539C42D6D173681A68936843F4804350
:1022F400936023686A7F23F0787343EA4253236030
:102304002368AA7F23F4F81343EA02432360EB7F94
:102314001BB1A36843F40043A36095F820301BB1BC
:10232400236843F000532360236843F001032360D0
:10233400E3699A02FCD5E3695B02FCD5ACE76FF074
:102344005700A9E76FF01200A6E700BF003801406C
:102354002DE9F04143681C6803691E680B79012B61
:1023640002460D4617D0981E41424141890295F814
:1023740005E0AF79BEF1020F96BF30484FF4005C20
:1023840030F81EC0022F09D0042F01D0002B4CD0EE
:102394004FF4805005E04FF4C061E8E7002B41D0D2
:1023A4000020A3F10308B8F1010F04D86FF08503EE
:1023B4001846BDE8F0810BB1042FF7D0BCF5805F5F
:1023C40035D0BCF5405F34D0BCF1000F0CBF012305
:1023D40003239E45EAD102F0DEF88742E6D1EB7989
:1023E40063B1012B27D1164B9C4207D0A3F574434C
:1023F4009C4203D003F570539C42D7D1236823F049
:102404000103236029461046FFF764FE03460028B3
:10241400CCD1226842F00102226095E8030086E8EC
:102424000300C5E74FF08050C8E71846C6E700230D
:10243400CFE70223CDE7032BD5D0B7E794520008AA
:10244400003801404FF0E0230D4A99691268186979
:102454009B69002908BF1146002B08BF134610F4DE
:10246400803F084801D1994205D2016811440160B6
:102474004FF0E021096900681044C01A704700BF9A
:102484008004002074040020094B102283F82320C8
:10249400084B4FF496521A60074B002018604FF017
:1024A400E02341F2BF225A61072298611A61704702
:1024B40000ED00E08004002074040020684620F051
:1024C40007018D4601B5FFF7BDFF104B104A186890
:1024D40011680844106000221A600E4A13684FF411
:1024E4009651C01AB0FBF1F001FB00331360EFF317
:1024F4001181102383F31288BFF36F8F01F048F822
:10250400FFF7D8F8BDE80140854670477404002001
:102514007C040020780400202DE9F041324D91B173
:10252400421C0AD14FF0E022136923F00103136126
:102534004FF07F432B60BDE8F0812C68012807DC55
:102544004FF000080BE0431C2C68F7D140F6A6506E
:1025540040F6A7539842A8BF184600F1FF38EFF39E
:102564001186102383F31288BFF36F8FFFF76AFF7E
:102574001E4F4FF0E0230022D3F818C03B681844E4
:102584001B4B1A601B4B1A68831A29D44FF4965EAE
:1025940018FB0E3303F595531F33B3FBFEF1131AE7
:1025A4000EFB0133B3F5806F134A38BF4FF48063D9
:1025B400934228BF13464FF0E0222B609169013B00
:1025C400536100238C459361ACEB01033ABFE418DB
:1025D4000019C018386086F31188BFF36F8FAAE71B
:1025E4004FF48063E7E700BF800400207C040020F0
:1025F400740400207804002080E8FF0038B5EFF36D
:102604001185102383F31288BFF36F8F084B1C6866
:10261400084B1B68E41AFFF715FF85F31188BFF315
:102624006F8F4FF496532044B0FBF3F038BD00BFD6
:102634007C0400207804002038B5EFF311851023C2
:1026440083F31288BFF36F8F044B1C68FFF7FAFE05
:1026540085F31188BFF36F8F204438BD7C040020BC
:1026640010B54FF0B0439A68D96812F00C0205D047
:102674000C2A4AD101F00303012B50D14FF0B04191
:102684002B480B6813F0080306D00B6813F00803FB
:1026940037D1D1F8941007E00C68240756BFD1F85D
:1026A40094300968C3F3032350F82330002A0CBF85
:1026B400184600204FF0B0418A6802F00C020C2A40
:1026C4001ED1CA6802F00302022A2ED0032A06D1C0
:1026D4000B68184A13F4801F174B08BF13464FF0BA
:1026E400B042D068D168D268C0F306205843C1F321
:1026F40002130133B0FBF3F0530F0133B0FBF3F0DB
:1027040010BD0B68C3F30313CEE7042A0AD0082ACA
:1027140005D11B6813F4801304D10648CAE70023CB
:102724001846C7E704480023C4E7034BD7E700BFB4
:10273400FC5100080048E8010024F400204A034644
:1027440007CA84B00DF1100C0CE9070018463BB31E
:102754001C4B1B6803F4C063B3F5007F22D11A4BF2
:10276400984229D8194B984224D9194B98428CBFC6
:1027740002200120174904AB03EB80000B6850F8DA
:102784000C2C23F0070313430B600B6803F00703BF
:102794009A4213D0086800F00700831A584258413F
:1027A40004B070470C4B984206D80C4B984201D9A0
:1027B4000B4BDBE70020DDE70020F1E70120EFE72A
:1027C400B84F000800040058006CDC0280A8120115
:1027D40000512502004000580024F400808D5B0065
:1027E400001BB700F0B50A4687B020230D46002130
:1027F400074601F06AFA2C4B03932C4B02930026F4
:1028040008230446CDE90470CDE900632849334622
:102814000422304601F0A0FF6CB1264B24490096F7
:10282400CDE9016301223346304601F095FF0124CE
:10283400204607B0F0BD2B681F4A93420CD0039387
:102844001E4B1B490094CDE9014301222346204637
:1028540001F082FF0324EBE72B6913F010030AD085
:10286400174B13490094CDE9014301222346204626
:1028740001F072FFEEE7E8682A89B968121806D2F7
:1028840013466A89D21802D291421346D0D8CDE9B0
:1028940003310C4B02930023CDE900330449012298
:1028A400184601F059FFD5E77B5600088355000808
:1028B400984F0008B25500083DB8F396CE5500086D
:1028C400E4550008F755000808B5124BA82200216A
:1028D400184602F05BF9032202610F4942610F4A74
:1028E4008161C26140220262002282624262C2624B
:1028F40001660B494166102181660A490267034655
:10290400C266426711F8010D98540132102AF9D1B8
:1029140008BD00BF50000020295600081000002008
:1029240000000020A25600082DE9F74FDFF8888048
:10293400182606FB008700FB066646447D6AD7F826
:1029440028C07368AC4581468B46144603EB0500EA
:1029540025D83B6AA3EB050A0AF1FF3E724507D866
:102964002C4402F005F97C62012003B0BDE8F08F2D
:10297400E64472451ED85246019302F0F9F8019BD1
:102984002C44E41A05D0706822460BEB0A0102F0CD
:10299400EFF8182303FB0988C8F82440E4E70CF196
:1029A400FF3CACEB050C944504D3254402F0E0F85D
:1029B4007D62D9E70020D8E750000020F8B5144B19
:1029C400182700FB07751D4407FB00330E46DB6A1E
:1029D400012B14460AD0022B14D023B9284601F047
:1029E400CBFE844208D900242046F8BD284601F0D5
:1029F400C3FE844228BF044622463146284601F0DD
:102A0400C4FEF1E72846BDE8F84001F0D9BE00BF96
:102A140050000020F8B50B4B1B78532B04460E4690
:102A2400174601D0FFF750FF01F0F9FE3A4605467C
:102A340031462046FFF7C2FF0446284601F0F7FE60
:102A44002046F8BD50000020034B182202FB00333F
:102A54009A6A586A801A70475000002010B4084AD5
:102A640008490023C85C12F8014D844204D10133A3
:102A7400102BF7D110BC704710BCFFF725BF00BF67
:102A8400A25600085000002038B5EFF3118510233A
:102A940083F31288BFF36F8F064B9C6801F005FF28
:102AA40085F31188BFF36F8F2046BDE83840FEF7E9
:102AB40011BE00BF8404002038B50A4B53F82040EF
:102AC400013053F82050A54200D838BD606830B1B9
:102AD400037EDB0701D401F0BDFE0834F3E723686D
:102AE4009847FAE77C52000870B52A4B2A4C2B4DC4
:102AF40086B0012203201A70FFF7DEFFFEF76EFB9B
:102B04000420FFF7D9FF2646AE4204F130040FD368
:102B140000F098FA204CAC4226D300F0A7FAFDF757
:102B240077FC1F4A938923F00103938106B070BD9B
:102B340054F80C3C059354F8103C049354F8143C9A
:102B4400039354F8183C029354F81C3C019354F832
:102B5400203C009354E90A2354E90C0100F01EF9C7
:102B640054F8303C5E65CEE7D4E90A23B3F1FF3F65
:102B740008BFB2F1FF3F05D052EA0301206803D138
:102B840001F03EFF3034C6E70649183000F070FC0F
:102B9400F8E700BFD60400201C4F00081C4F0008B3
:102BA40008020020AD49000870B5002386B0012258
:102BB400CDE90423134E144D01930F22CDE90232C3
:102BC4001249142303FB005506EBC01604464FF4C8
:102BD400A07000FB04110E4B00954FF48072304638
:102BE40000F0DCF8337C0B4AEE6023F0040333740A
:102BF4004FF4046304FB033313442C746B6006B07A
:102C040070BD00BF8801002084040020400D002016
:102C1400BD480008000500207FB50020FFF74CFFE9
:102C2400294B83F30888294C636943F40073636177
:102C34000025F02384F82230E57725766576A5769D
:102C440084F82050636A43F4E0236362FEF754FC83
:102C5400FEF72AFD4FF0FF33A362E362FEF746FE60
:102C6400FEF7A2FDFDF798FF19481A4C00F0E2F8B0
:102C7400FDF7F8FE0120FFF71FFF0220FFF71CFFFE
:102C840000F01EFA144B15495C61154B05930123A2
:102C94004FF42052CDE90353CDE90155114B009572
:102CA400204600F07BF8237C064623F004032046EC
:102CB400237401F056FE2846FFF776FF094A314691
:102CC4002046FEF7D3FC00BF400D002000ED00E0DD
:102CD400880200200802002084040020800E0020C6
:102CE40032560008ED2A000870B5EFF31186102360
:102CF40083F31288BFF36F8F0468A0421AD0CCB15B
:102D0400D4E9003213605A60237C002523F00203C7
:102D14002374C4E90055A56004F1180001F0A7FE6E
:102D24002046A56701F01DFE31460848BDE8704005
:102D340001F04ABED0E902329A4218BF01338360DF
:102D440086F31188BFF36F8F70BD00BFD7040020D6
:102D540013B5EFF31181102484F31288BFF36F8F3E
:102D6400846844B1013C846081F31188BFF36F8FA0
:102D7400002002B010BD52EA030406D181F3118889
:102D8400BFF36F8F6FF00F00F3E7CDE90023024626
:102D9400014800F035F9ECE7D70400202DE9F043B1
:102DA400073285B022F007020E461F461099818132
:102DB40000F158037F32C0E916330446002322F0A1
:102DC4003F020421836001743F2A0F98A073C4E971
:102DD4000633E37306F14009A2F1400805D883F3F2
:102DE4001188BFF36F8F084602DFB51829462046C5
:102DF400FEF72EFA07300E9B20F00700A066C4E908
:102E0400189802930D9B01932D1A0C9B00932A464C
:102E14003B4631462046FEF7F7FB00236365044B2F
:102E24009B6803B1DB6EE366284605B0BDE8F0831A
:102E3400840400200123037483810023C0E9183330
:102E4400C366014B9860704784040020094A936864
:102E54006FF00A019967084958674B6843F080533B
:102E64004B60002383F31188BFF36F8F9368986FCF
:102E7400704700BF8404002000ED00E070B590F9B5
:102E84001020037C002A2FDBD9062DD11A4C63F0C5
:102E94007F032246037452F8183FE169934207D135
:102EA400C0E900210860E0610FE09942F8D01B6896
:102EB400002BF5D093F90E6090F90E50AE42F4DD7C
:102EC4005968C0E9003108605860A569954200D08E
:102ED40005B9E568A3681A7CD20606D1DA897F2A87
:102EE40003D9AA690AB9636170BDAB4202D028460E
:102EF40000F040FA6561F7E78404002038B590F9E2
:102F04001020037C002A014604DA03F07F030374D3
:102F140001F0EFFC0D4D2A46AB6852F8184F94426D
:102F240000D004B9EC688B4207D01A7CD20604D1D5
:102F3400DA897F2A01D9A2692AB1A34202D02046A4
:102F440000F018FA23466B6138BD00BF84040020EA
:102F5400B3F1FF3F08BFB2F1FF3F03D0024918307D
:102F640000F086BA704700BFAD490008034648B96F
:102F7400EFF3058232B9064A51699268914201D051
:102F8400FFF764BF83F31188BFF36F8F704700BFEF
:102F94008404002038B5184CA168E0690B688142AC
:102FA40014BF1A46002249680B605960A368E1699E
:102FB4002AB9124AC3E900210B60E3610AE092F9DD
:102FC4000E5093F90E00854212DD5168C3E90021C9
:102FD4000B605360A569094B9D4200D005B9E568B3
:102FE400A3689D4202D0284600F0C4F9656138BD4B
:102FF4008A42DED01268DBE7840400209C040020AF
:10300400F8B50E4B0C4611460D4A98681060DDE980
:103014000667EFF31182102282F31288BFF36F8FD9
:103024009D68284601F077FC284632463B46FFF768
:103034008FFF2046BDE8F840FFF708BF8404002056
:10304400A4040020EFF31181102383F31288BFF34B
:103054006F8F054B9A68D37B013BD37381F311883F
:10306400BFF36F8F704700BF8404002070B5EFF387
:103074001186102383F31288BFF36F8F0F4DAB6853
:10308400DA7B0132DA732A4652F8184F944200D0A0
:1030940004B9EC681A7CD20604D1DA897F2A01D9F2
:1030A400A2692AB19C4202D0204600F063F923466B
:1030B4006B613046BDE87040FFF758BF84040020C0
:1030C400024B03F11802C3E906227047840400206E
:1030D40070B5EFF31186102383F31288BFF36F8F5B
:1030E4001A4CA168E0690B68814214BF1A46002299
:1030F40049680B605960A368E1692AB9144AC3E9B5
:1031040000210B60E3610AE092F90E5093F90E007E
:10311400854216DD5168C3E900210B605360A5693F
:103124000B4B9D4200D005B9E568A3689D4202D0CF
:10313400284600F01FF965613046BDE87040FFF78E
:1031440085BE8A42DAD01268D7E700BF8404002023
:103154009C040020F8B550EA010306460C4603D14E
:10316400FFF7B6FF0020F8BDEFF31187102383F3B8
:103174001288BFF36F8F124D124BA8681860FFF7C7
:10318400BDFEA868104923463246183000F070F995
:10319400AA68137C43F00403137404463846FFF70B
:1031A40055FEAB68D3E90A23B3F1004F08BF002AE8
:1031B400D8D101F091FC201A20EAE070D3E700BFD7
:1031C40084040020A4040020AD490008014B986841
:1031D400704700BF840400202DE9F8430446878922
:1031E400EFF31186102383F31288BFF36F8F037CF0
:1031F400190705D586F31188BFF36F8FBDE8F883EF
:10320400D90943F008026FD10274A36813B12046B0
:1032140001F077FB04F1180001F029FCA56D04F11D
:103224005808A84511D04FF0000975B1284601F09F
:1032340068FB05F1180001F01AFCC5F878902846DF
:10324400FFF71CFEA56DA845EFD1DFF8BC80D8F8C8
:1032540008309C4250D1EFF30589B9F1000918BF39
:103264004FF00109D8F81850284A954200D00DB9FA
:10327400D8F80C50AB4202D0284600F07BF8204628
:10328400C8F8145000F06EFDB9F1000F02D02048C8
:10329400FFF7D0FDD8F808309C4230D1EFF3058316
:1032A4006BBBA289D20711D586F31188BFF36F8F48
:1032B40083F31188BFF36F8F0423184602DFEFF303
:1032C4001186102383F31288BFF36F8F3046FFF704
:1032D400BDFDFB0792D5002383F31188BFF36F8FE5
:1032E4000423184602DF89E703F07F0343F0080351
:1032F400037401F0FEFA88E74FF00009B2E786F3A1
:103304001188BFF36F8FE4E7840400209C0400203D
:1033140088020020027C12F01F02034610D10A49E1
:1033240088420DD00949086868B1D9897F2909D82C
:1033340093F90E20064B1B689A42B8BF00207047D1
:10334400002070471046704788010020500100207B
:10335400A8040020044BC01A044BC0105843044B6B
:1033640001221A54704700BF08030020ABAAAAAA7E
:10337400D704002070B50C4B0C4D1E7CFFF7CAFF20
:10338400182303FB06550446284601F070FB084B3E
:1033940000229A553CB1621E28460649BDE8704099
:1033A400D31700F065B870BD840400200803002022
:1033B400D70400205933000838B5EFF311851023E2
:1033C40083F31288BFF36F8F0F4B104A9C68106809
:1033D400A04206D1FFF7CEFF85F31188BFF36F8FAC
:1033E40038BD00211B7C1160094AD35C002BF3D04B
:1033F4002046FFF78FFF0028EED0237CDB0601D1A7
:10340400FFF7C8FD2046E5E784040020A40400205B
:10341400D7040020024B1868984208BF0020704768
:1034240054010020034B1B680BB9FFF7E7B80020D9
:10343400704700BFAC04002030B570B10B4B5B6823
:1034440098420AD0036843B1D3E90421D0E9044582
:10345400121941EB0501C3E90421D0E900321360DC
:103464005A600023C0E9003330BD00BF540100207E
:10347400B3F1FF3F08BFB2F1FF3F2DE9F84F044617
:10348400994615461F467AD08160EFF311881023C0
:1034940083F31288BFF36F8FB9F1000FDFF8E4A054
:1034A40020DBFFF7BFFFDAE90027013549F1000906
:1034B4002D1849EBE073C4E90453AD18064643EBF9
:1034C40007074FF00109FFF7A5FFDFF8BCE0DEF8BE
:1034D40004A00346EBB9C4E900EACAF80040CEF8F8
:1034E400044028E0DAE900126FF001035B1A4FF0A0
:1034F400FF3161EB02025B1B62EB0902012B72F1EB
:103504000001BCBF01230022C0E904324FF00009CE
:10351400D9E7D3E9041CD4E904208A4270EB0C0BEC
:1035240024DA891A5A686CEB0000C3E90410C4E970
:10353400003214605C60FFF76DFF84420ED1134BC0
:103544001B685BB9B9F1000F02D1FFF76BFF0646A8
:10355400304601F075FA0021FEF7DEFF88F311888A
:10356400BFF36F8F28463946BDE8F88F521A60EBD7
:103574000C005345C4E90420ADD01B68AAE700251C
:103584002F46EFE72003002054010020AC04002064
:103594002DE9F047DFF8A890DFF8A880C9F800000B
:1035A4000246FFF737FF0D4600260027D8E900132F
:1035B4004FEAE27E50B1D0E9044CA2427EEB0C0A01
:1035C4001BDAA41A6CEB0E06C0E9044652184FF03D
:1035D400000443EB0E032046C8E90023C9F8004069
:1035E40001F02EFA2146FEF797FF85F31188BFF309
:1035F4006F8FBDE8F047FFF7DFBE611843EBE4735C
:10360400C0E90467C8E90013FFF716FF01224FF071
:103614000043C0E9042385F31188BFF36F8F8368E7
:103624009847EFF31185102383F31288BFF36F8F4C
:10363400D9F80020121BC9F80020FFF7EBFEB5E70C
:10364400AC0400202003002010B5EFF311841023F4
:1036540083F31288BFF36F8FFFF7E4FE054A034636
:10366400D2E90001181841EBE37184F31188BFF328
:103674006F8F10BD200300202DE9F04F8378D0F820
:10368400048015469A0785B0074640F19F800026BE
:103694000878002800F09C80252808D001F1010A50
:1036A40001363946C047002880F286808AE091F8C6
:1036B40001B0BBF1250F01F1020AF1D00024012170
:1036C4001F2C25D8ABF12002102A06D8844B01FA0E
:1036D40002F018420ED1032A5AD0ABF13002092A63
:1036E40008D9BBF12A0F33D1630605F1040501D4CF
:1036F40044F020041AF801BBBBF1000FE0D13946B5
:103704002520C04700285DDB023639465846C9E704
:103714007F2CE2D9BBF16C0F29D021D8BBF1680F03
:103724002CD0BBF16A0F30D0BBF14C0F2DD0ABF1D4
:103734006302122A00F2A580DFE802F02C4EA3A354
:10374400A3A34EA3A3A3A3A3AD9DA3A331A37700D7
:10375400BBF12E0FDED160063AD444F04004C9E731
:10376400BBF1740FC6D0BBF17A0FC3D0DFE72206DA
:1037740048BF44F4007444F08004BBE7E30548BF49
:1037840044F4007444F48074B4E744F42074B1E75E
:103794001024AFE715F8040B0136394682E72C688C
:1037A400504B002C08BF1C46A1464B4619F8010B90
:1037B40020B9341B1E190435514669E73946C04700
:1037C4000028F2DABB7843F00403BB704FF0FF36F5
:1037D400304605B0BDE8F08F20061DD5A10545BFD4
:1037E400073525F0070555F8040B55F8080B002894
:1037F4000DF10409B8BF404249464FF00A02B8BF70
:1038040044F4806401F0CAF96405A0EB090956D4B4
:103814004C460DF1040B5EE0E20555F8040BE6D5C9
:10382400A3054CBF40B200B2E1E724F01004A4B2F7
:103834000A22200633D5A10545BF073525F0070523
:1038440055F8040B55F8080B10B924F01004A4B271
:103854000DF10409494601F0A1F9E306A0EB0909B9
:10386400D6D539463020C0470028ABDBBBF1000F6A
:103874001ED10136CCE744F0100410224FF0780B2F
:10388400D7E74BF02002782A7FF439AFCBF17802E6
:1038940042F01002CDE708224FF0000BC9E7E30520
:1038A40055F8040BD0D5A1054CBFC0B280B2CBE70C
:1038B400023639465846C0470028A9DA82E701365D
:1038C40039462D20F7E7013C39461BF80400C04770
:1038D4000028FFF677AF002CF5D14E446CE700BF0B
:1038E400812801003756000870477FB50BAB05935C
:1038F40003930A9B0293099B0193002300931846A8
:1039040000F02FF907B05DF804FB7FB50BAB05930E
:1039140003930A9B02930023CDE900330122184646
:1039240000F01FF907B05DF804FB002070477047F2
:10393400704770472DE9F04706460D4617469846EE
:103944002BB398F8004093F80190DB78A40004EBC3
:10395400430498F802301C4444444FF0000ACA451A
:1039640009D3D8F8042008F1080339463046AC4698
:10397400BDE8F047604714F8013B48F8234020466F
:10398400FCF7E0FB013004440AF1010AE7E76FF0B9
:103994001500BDE8F087002070470FB407B504A9EF
:1039A40051F8040B019100F0A9F803B05DF804EBA1
:1039B40004B070477047F0B51E4643685C68012048
:1039C40067688840C2F3801327EA00078B403B43B3
:1039D400636090FAA0F7B7FA87F7D4F808C04FF0FD
:1039E400030E7F000EFA07F72CEA070C90FAA0F7F3
:1039F400B7FA87F7C2F3C1137F00BB4043EA0C0355
:103A0400A36090FAA0F3B3FA83F3E7685B000EFABD
:103A140003F327EA030790FAA0F3B3FA83F302F05F
:103A240030055B00C2F341229A403A43202DE26004
:103A340016D107292CD890FAA0F3226A33B3B3FA2B
:103A440083F39B000F2101FA03F322EA030290FAA5
:103A5400A0F3B3FA83F39B0006FA03F31343236240
:103A640090FAA0F3B3FA83F3226890FAA0F003214A
:103A74005B00B0FA80F001FA03F340002D0922EA5A
:103A8400030385401D4325600020F0BD2B46D8E785
:103A9400030A616A93FAA3F282B1B2FA82F2920043
:103AA4000F2793FAA3F3B3FA83F307FA02F29B0006
:103AB40021EA02029E4016436662D1E72A46EEE7F7
:103AC4000020704708B501F00BF80A220023FCF728
:103AD4001FFB08BD0346BFF35B8F53E8000F421C76
:103AE40043E800210029F8D1BFF35B8F704708B584
:103AF40000210846FCF7CEFF002008BD1FB50023B7
:103B0400CDE90201CDE900331A461946184600F002
:103B140028F805B05DF804FB70470020704743683F
:103B2400DA7143681960436801225A71FFF7F4BFE0
:103B340070B50E4615461946044618B9BDE87040DE
:103B4400FDF76EB833B1C2F34A231030120D184496
:103B540001F00EF8C4E900562046BDE87040FDF7B8
:103B640077B82DE9F04F85B002AFD7E90EBA3E6BB6
:103B74000546884614469946BBF1000F11D0C7F894
:103B840004A0CDF800A010217A6B5B460020FCF75E
:103B94000FFDB0F5006F014605D30C37BD46BDE8F7
:103BA400F08F5946584604F0070205F00704E40074
:103BB40044EA821444EA402444EA065417360E4484
:103BC40026F00706ADEB060D02ADBBF1000F07D0E2
:103BD400CDF800A07A6B5B4605F11000FCF7E8FC19
:103BE4004B46224641462846FFF7A2FFD5E7F8B5E3
:103BF40006460D4614461F4604B9F8BD214628461C
:103C04003A46B047241A0544F6E707B5D1E900322D
:103C14008DF80700526801210DF107009847002034
:103C240003B05DF804FB0A2838B504460D4602D1FA
:103C34000D20FFF7EAFF29462046FFF7E6FF0020A4
:103C440038BD2DE9F043054689B008460E8891F841
:103C54000090D1F808800C461746FDF723F8011EA2
:103C6400C6F38216C9F3C2091FDB4846FDF70CF8F8
:103C740003462146608851F8102B0296C2F34A226B
:103C8400002A01EB0204C0F30B1008BF002100223C
:103C9400CDE90507CDE90314CDE9002241462846C4
:103CA400FDF72CF809B0BDE8F0830023E1E7002913
:103CB40008DB8068884205D9401A904234BF00204E
:103CC4000120704700207047704770B516461A46A9
:103CD40005460C46FFF7EBFF48B16968E8682144E4
:103CE400826814683246A446BDE8704060476FF0AD
:103CF400150070BD7FB50BAB059303930A9B02932C
:103D040008220023CDE9003218460422FFF729FFD8
:103D140007B05DF804FB006AFFF7D6BF00F036BFBA
:103D240000F026BF012801D1EFF30583FEF7ACBEF6
:103D340001460068FFF7F6BF08B5FDF785FABDE850
:103D44000840FDF7B7BC00210120FFF7EBBF08B521
:103D5400FDF74CFCFDF750FAFDF75AFAFDF700FDAC
:103D6400FEF75AFF6FF08500704761B662B680F3C4
:103D74001188BFF36F8F704772B6002383F31188E5
:103D8400BFF36F8FBFF34F8F30BF62B6BFF36F8F38
:103D94007047202809D9B0F1004F08D80138B0FA8B
:103DA40080F0C0F11F0040007047082070473E209B
:103DB400704708B5D1E904319847002008BD08B51B
:103DC400FDF772FE002008BD08B50622012100207F
:103DD400FDF7BCFE002211460620FDF7EFFB012192
:103DE40008460722FDF7B2FE002211460720FDF720
:103DF400E5FB082201210220FDF7A8FE002211465E
:103E04000820FDF7DBFB092201210320FDF79EFEBC
:103E1400002211460920FDF7D1FB0A2201210420CA
:103E2400FDF794FE002211460A20FDF7C7FB052189
:103E340008461622FDF78AFE002211461620FDF7D9
:103E4400BDFB292206210A20FDF780FE002211462F
:103E54002920FDF7B3FB002008BD01F01F0101205C
:103E64008840704700F00302043292000F2393400D
:103E740043EA900010B500F003039B0003F1804374
:103E840003F58033020C9C6892FAA2F2B2FA82F231
:103E940002F00F0224EA104091400143996010BDE2
:103EA4004FF0B0431868C0F3802070470B88C3F309
:103EB4000B0303F6B872C2F30B021C2A82B010D8AB
:103EC40003F1B04348681A6802431A600B88C3F3CD
:103ED4000B0303F1B04300201B680193019B02B064
:103EE40070476FF08500FAE70B88C3F30B0303F602
:103EF400B872C2F30B021C2A9FBF03F1B043496896
:103F04001A688A439ABF00201A606FF085007047D0
:103F140001380A2809D840F2EB63C34013F0010FBB
:103F24000CBF6FF08500002070476FF0850070476C
:103F340070B508884A68C0F30B0094B2C2F3044514
:103F4400FFF7E6FF90B9FF2A0FD0C2F3415604F100
:103F5400B04401360123B3402168013BAB40120E4B
:103F640021EA0303AA401343236070BD6FF0850068
:103F7400FBE70888C0F30B0008B500F6B873C3F379
:103F84000B031C2B08D800F1B0404B680268934324
:103F94000CBF0220012008BDFFF7BAFF00280CBFA8
:103FA40002200120F7E770477047F7B51C46164614
:103FB400002382682360A36053690D4601AA694601
:103FC4009847019B5A1E01921BB96FF0150003B06C
:103FD400F0BD0098A26847682168676085B9B31A84
:103FE400D0F800C0634528BF63461A4403FB071199
:103FF4002160A26002689A4206D808300090E0E787
:104004006B1AB3FBF7F3EBE70020E0E7134600225B
:10401400FFF7CBBF4FF0FF324FF0FF330430FEF712
:1040240097BE7FB506460D4614461BB141EA02030E
:104034005B0710D101AA29463046FFF7E7FF50B9C4
:10404400013C01AA61193046FFF7E0FFB0FA80F0A5
:10405400400904B070BD0020FBE770B51C4615464E
:10406400002322460E46FFF7DCFF40B12CB1224666
:1040740006F10061284600F07BFD002070BD6FF062
:104084001500FBE70020704708B5006904300122E1
:10409400114600F01CFCFFF7F5FF00EAE07008BDD4
:1040A40073B506464FF4FA720023684600F01AFD11
:1040B40033691B681A6944F2FA310A40DDE90045A4
:1040C40013D01A690A401A616FF0040002B070BD7F
:1040D400002AF9D122462B46684600F028FDDDE986
:1040E400003213430CBF0122002233691B68186994
:1040F40010F4A020ECD1E9E770B5012305460E4683
:104104001446FFF78EFFF8B1CCB12869FFF782FFA0
:1041140000212846FDF752FF98B931462246284629
:1041240000F043F8064601212846FDF747FF002E1C
:1041340014BF3446044628690430FEF7D5FD2046F2
:1041440070BD6FF00406EEE76FF01504F7E7F8B5FD
:104154001C4617460123224605460E46FFF761FF1B
:1041640000B3D4B12869FFF755FF00212846FDF7B5
:1041740025FFA0B9314623463A46284600F070F898
:10418400064601212846FDF719FF002E14BF3446C8
:10419400044628690430FEF7A7FD2046F8BD6FF0F9
:1041A4000406EEE76FF01504F7E7F8B5551E0D4465
:1041B4000646CF12ED120020BD4200D2F8BD33698D
:1041C4001C686369002B48DB3046FFF769FF002851
:1041D400F4DB23685A050FD5236823F48063236036
:1041E400236843F480532360236823F480532360BB
:1041F400236843F48063236023689B050FD52368F9
:1042040023F400732360236843F40063236023686A
:1042140023F400632360236843F400732360636919
:1042240043F002036361636923F47E73636162692B
:10423400FB0003F47E7313436361636943F48033C7
:10424400636130466369FFF72BFF6369002823F03D
:1042540002036361B2DB0137AEE76FF00400ADE740
:104264002DE9F84F0546002016469846044601F10C
:104274000067A04510D924F007033344E210D3F8B3
:1042840004A02B6956F832B0D3F80090D9F8143052
:10429400002B03DA6FF00400BDE8F88F2846FFF71F
:1042A400FFFE0028F8DB3A59013207EB040302D180
:1042B4005A68013202D05BEA0A02EBD1D9F8142021
:1042C40042F00102C9F81420D9F81420C3F800B050
:1042D4002846C3F804A0FFF7E3FED9F814300028F9
:1042E40023F00103C9F81430D6DB0834C1E743686E
:1042F4005B681B690B600020704743685B68586902
:1043040042400A4042405A610020704743685B685B
:1043140000209961704743685B6800209962704788
:1043240043685B685A69514059610020704730B551
:104334000369986800B30024884219D108688CB9CD
:10434400DC689860A14200D1D860002008602AB1DE
:104354009A680A60DA68996002B9D96000200FE0AF
:104364002846E9E72060D868814208BFDC60ECE7B2
:1043740005680446002DF3D1002AE9D16FF0150039
:1043840030BD12F4003CF8B50C46134641D09607F4
:1043940038D555075BD55022D90635D542F400727D
:1043A40003F4C061B1F5806F43D0B1F5C06F3DD067
:1043B400B1F5007F40D013F44036056912D06F6820
:1043C40027FA04F1C9075FBF0121A140394369609D
:1043D400BCF1000F06D01F0331D5416801234968A1
:1043E400A3408B6100232146FFF7E5FA46B96B68C9
:1043F40023FA04F2D20741BF0122A24093436B6027
:104404000020F8BD1022C7E79F06C9D542F4806298
:10441400C6E7D60305D5D50605D4C2F340129202E9
:10442400BEE73022BCE74FF40072B9E742F4C07231
:10443400C1E742F48072BEE742F08002BBE7590351
:10444400D0D5416801234968A3408B62CAE76FF065
:104454008500D6E770B50B690E469968054609B123
:104464000C6801B970BD8A682A4002D04B68304696
:1044740098471CB1236821461C46F2E72346FAE715
:1044840030B5036813600579046804EBC504A342DE
:1044940002D36FF0010030BD5C798C4203F1080354
:1044A400F0D10020F7E72DE9F84F044600EBC108EE
:1044B40000254FF00109444502D10020BDE8F88FE2
:1044C400D4F800B01BF0100F20D1656845F020052A
:1044D400CBF34420FCF766FA074608B3CBF3431644
:1044E4000BF01F0A53462A463146FFF764FA0028A8
:1044F400E4DBBAF1110F07D17B685B6809FA06F6B1
:104504002A054CBF9E619E620834D4E70BF01F035A
:10451400102B03D0112BDBD16568D9E73025D7E701
:104524006FF01200CAE74368C1F34B101B6801F037
:104534001F01C05801238B400340003B18BF0123D7
:1045440013700020704710B54368C1F34B101A680C
:1045540001F01F01845801238B4023438350002022
:1045640010BD10B54368C1F34B14186801F01F0166
:10457400235801228A4023EA02032350002010BD5D
:1045840038B504460D46FFF7DEFF29462046FFF7FF
:10459400E8FF002038BDB0F5805F07D0B0F1805F40
:1045A40009D100290CBF02200120704700290CBF4B
:1045B40004200320704700290CBF03200220704709
:1045C40043681B68D869DA69C0F3C00002F00102CD
:1045D40040EA4200DA699207DA6948BF40F0040011
:1045E4005107DA6948BF40F02000D20542BF4FF4BA
:1045F400807240F008001A62C10744BF08221A62A0
:10460400820744BF01221A62410744BF02221A6290
:10461400820644BF04221A62704737B50346056810
:104624000C4619B96FF0150003B030BD4068196924
:104634008368DB6893B101AA98470028F4DB2B68F0
:1046440023F400432B60019B03EB5403B3FBF4F10D
:104654000F29E7D989B2E9600020E5E76FF0570038
:10466400E2E710B543681B681020DA691206FCD52E
:10467400EFF3118280F31288BFF36F8FDC69240695
:1046840004D482F31188BFF36F8FEEE7996282F34B
:104694001188BFF36F8F10BD43681B68DA69100778
:1046A40044BF08221A62DA69920643BF5B6A0B7040
:1046B40000204FF0FF30704710B50269126812688D
:1046C4000A6042681268126802F4C062B2F5806F30
:1046D40004460B4633D0A2F5C060424242411A71EF
:1046E40062681268526802F44052B2F5805F28D0C2
:1046F400B2F5405F27D0002A0CBF012203225A7171
:10470400626812681068116800F0102001F4C0613A
:10471400FFF741FF987162681268926802F4407270
:10472400A2F540714A424A41DA71616809688968B0
:1047340011F4804F18BF0322DA71002010BD022249
:10474400CDE70022DBE70222D9E74FF0E02213692C
:1047540023F00103136170477FB50BAB05930393FB
:104764000A9B0293099B0193002300931846FFF7C9
:10477400F8F907B05DF804FB0369C26893429CBF73
:1047840081685B18013B981A70472DE9F041D0E924
:1047940002840546A8EB04064068964220440F466E
:1047A400144404D900F0E4F9EC60BDE8F081324629
:1047B400A4EB080400F0DCF968682246B919F1E7B3
:1047C4002DE9F843C5680646894617464FF00008A8
:1047D4003369B46870689D4228BF1B19641BBC42CE
:1047E40003F1FF3328BF3C465B1B9C4228BF1C4699
:1047F40049462844224600F0BBF9B3682544AB423D
:1048040008BF00253F1BA044A144F560E0D1404609
:10481400BDE8F88308B5FEF721F9002008BDEFF3E1
:104824001180102383F31288BFF36F8F704780F3D6
:104834001188BFF36F8F704738B5044648B1FDF750
:10484400FBFE302305465C43FDF7F6FE431BA34203
:10485400FAD338BD10B5436904463BB90020E26879
:10486400537843F001035370404210BD9847002829
:10487400F4D00028B8BF4042E368FF28A8BFFF2057
:104884001870ECE740B1C368587810F001001EBFFF
:104894001878B0FA80F040097047EFF311831023C1
:1048A40083F31288BFF36F8FFEE710B50446FCF75D
:1048B40099F92046FFF7F1FF08B51024EFF31183AF
:1048C40084F31288BFF36F8FFFF756FAF6E73AB115
:1048D4008A4205D3C0E90212C0E9000000207047F3
:1048E4006FF015007047EFF30580003818BF012002
:1048F4007047D0E9003213605A600023C0E90033E6
:10490400704708B5FFF7F5FF037C23F00203037437
:104914000023836008BD38B504460D46FEF7EEFA61
:10492400237C43F002032374D5B1A5602B689D4218
:1049340009D16B68C4E900531C606C6010E06A68BC
:104944009A42F6D01B68002BF3D093F90E1094F919
:104954000E209142F3DD5A68C4E9003214605C60B1
:1049640038BD10B5EFF31184102383F31288BFF31D
:104974006F8FFEF783FA84F31188BFF36F8F10BD36
:1049840008B5037C13F0280F01460CD183680BB1E2
:10499400FFF7B7FF0B7C23F004030B740846BDE854
:1049A4000840FEF76BBA08BD10B5EFF3118410236D
:1049B40083F31288BFF36F8F1838FFF7E1FF84F396
:1049C4001188BFF36F8F10BD0846FEF7CFBA38B514
:1049D40005460C46FEF7BEFBB4F1FF3F08BFB5F138
:1049E400FF3F0AD0C11709304FF00A024FF000030D
:1049F40041F10001FBF78CFB38BD4FF0FF30FBE7C2
:104A040038B50446EFF31185102383F31288BFF3FE
:104A14006F8F037C5B070ED5183000F028F8237CD9
:104A240023F0040320462374FEF728FA2846BDE841
:104A34003840FEF79BBA85F31188BFF36F8F38BDFA
:104A440008B50246FEF7E6FC70B1D0E904319B1AC2
:104A540061EBE272B3F1004F72F1000104DA002A53
:104A6400ACBF1846002008BD6FF00040FBE738B526
:104A74000246EFF31185102383F31288BFF36F8F7F
:104A84000368D3B1FEF7C6FC04461046FEF7D4FC17
:104A940000224FF000438442C0E9042305D00020E3
:104AA40085F31188BFF36F8F38BDFEF7BBFCFFF7AA
:104AB400C7FF0021FDF730FDF1E7D0E90413B3F19E
:104AC400004F08BF012904D100204FF00041C2E982
:104AD40004016FF01500E3E708B5FEF7B5FD08BD66
:104AE400FEF7B2BDB3F1FF3F08BFB2F1FF3F70B5AF
:104AF40006461D46144614D01A4316D0002B08DB74
:104B0400FEF7A2FD041941EB0501C6E90041304658
:104B140070BD6FF001031C1B4FF0FF3363EB050105
:104B2400F3E74FF0FF342146EFE70024FBE7B3F14E
:104B3400FF3F08BFB2F1FF3FF8B5074616461C46D3
:104B440010D054EA020311D0FEF77EFDB0420A46AB
:104B5400A14103460AD2F31A64EB0204C7E9003404
:104B64003846F8BD4FF0FF331C46F7E70023FBE758
:104B74000A44914200F1FF3300D1704710B511F897
:104B8400014B03F8014F9142F9D110BD0244034691
:104B9400934200D1704703F8011BF9E7F0B5C2F165
:104BA40037050446EDB202F01F020846B4FBF2F6E4
:104BB40002FB1641CBB2092988BF5B19274688BF7F
:104BC400DBB23033BA4200F8013B3446EED9F0BDD3
:084BD40084B5FF7F0100000021
:104BDC00000000005C4C00085D09000800000000AB
:104BEC00194800080000000000000000784C000884
:104BFC0000000000E84C000800000000044D000814
:104C0C0000000000944C000800000000CC4C000890
:104C1C0000000000B04C0008CD3D00080000000072
:104C2C00411F00080000000000000000204D00089B
:104C3C00000000003C4D00088D240008000000001E
:104C4C00F33A00080000000000000000584D000876
:104C5C002B55000800000000684F0008760100206A
:104C6C00000000008D1D00080000000052550008D7
:104C7C0058510008584F00087A010020000000002D
:104C8C000000000000000000BF530008C44F0008E3
:104C9C00344F00086C0100202C0300208909000807
:104CAC0000000000CD530008D84F0008344F000816
:104CBC006E0100203C030020890900080000000060
:104CCC00DB530008EC4F0008344F00087001002043
:104CDC004C0300208909000800000000E95300087B
:104CEC0000500008344F0008720100205C030020C3
:104CFC0089090008000000000D55000800000000A4
:104D0C00000000007401002000000000D51A00080B
:104D1C0000000000635500085C510008844F000837
:104D2C007C0100203401002021220008000000003A
:104D3C0073550008AC510008844F00087E01002018
:104D4C004001002021220008000000003855000816
:104D5C00000000001C4F00087801002020010020FA
:084D6C008D400008000000006A
:104D7400000000004B3D0008000000004B3D00080F
:104D8400000000004B3D0008000000004B3D0008FF
:104D9400000000004B3D0008000000004B3D0008EF
:104DA40079560008691B000877560008691B00083B
:104DB40075560008691B000873560008691B000833
:104DC40071560008691B0008000000004B3D0008F4
:104DD400000000004B3D0008000000004B3D0008AF
:104DE400000000004B3D0008000000004B3D00089F
:104DF400000000004B3D0008000000004B3D00088F
:104E0400000000004B3D0008000000004B3D00087E
:104E1400000000004B3D0008000000004B3D00086E
:104E24006F560008691B0008000000004B3D000895
:104E3400000000004B3D0008000000004B3D00084E
:104E4400000000004B3D0008000000004B3D00083E
:104E5400000000004B3D0008000000004B3D00082E
:104E6400000000004B3D0008000000004B3D00081E
:104E7400000000004B3D0008000000004B3D00080E
:104E8400000000004B3D0008000000004B3D0008FE
:104E9400000000004B3D0008000000004B3D0008EE
:104EA400000000004B3D0008000000004B3D0008DE
:104EB400000000004B3D00086D560008691B000807
:104EC400000000004B3D0008000000004B3D0008BE
:104ED400000000004B3D0008000000004B3D0008AE
:104EE400000000004B3D0008000000004B3D00089E
:104EF400000000004B3D0008000000004B3D00088E
:104F0400000000004B3D0008000000004B3D00087D
:084F1400000000004B3D000805
:104F1C005F40000853410008FD400008A11F000835
:084F2C00A91F00080520000880
:104F340087430008F3420008FF42000811430008B9
:104F44001B430008254300082D20000833430008B4
:044F54000000000059
:104F58002B4500084B4500086745000885450008B3
:104F6800B13E0008ED3E000800000000E11C00080A
:0C4F7800773F000800000000353F0008F3
:104F84009D46000867460008C545000855230008EB
:044F9400BD4600080E
:084F980096530008040000001C
:104FA000B450000888030020595400080100000094
:104FB000540000000001000000000000010000009B
:104FC00002000000FFFF0000001C00480700000076
:104FD0004C00000080000000FFFF000000080048B7
:104FE000020000004C00000004000000FFFF000071
:104FF00000040048010000004C0000000200000016
:10500000FFFF000000000048000000004C0000000E
:1050100001000000E84C0008CC4C0008B04C00082F
:105020000000000000000000000000000000000080
:10503000944C000800000000000000000000000088
:105040000000000000000000000000000000000060
:105050000000000000000000000000000000000050
:105060000000000000000000000000000000000040
:10507000000000000000000000000000473C0008A5
:105080000000000000000000000000000000000020
:105090000000000000000000000000000000000010
:1050A00000000000495400084D5400085154000805
:1050B00055540008B50F000800000000D90F000883
:1050C0009D0F000800000000A90F0008000000006C
:1050D0000D10000890030020B30400200100000020
:1050E000040000000000000000000000008000003C
:1050F000584D0008010000000080000000900200F0
:10510000584D0008020000000010030000A000003D
:10511000584D00080300000000B0030000500000DC
:10512000584D0008000100200000000000000B06A0
:10513000020000003851000800000008FE5400087A
:105140002200020200000020065500081E000B117C
:105150000800000000FF000000000058004400406C
:105160005C4C0008784C00081107000084510008CE
:10517000010000000000000000000000000000002E
:105180008C510008580000000000020094510008F3
:10519000010000009C5100080200000047000000D0
:1051A000000200006700000000000000003801401D
:1051B0005C4C0008784C00080E080000D451000830
:1051C00001000000000000000000000000000000DE
:1051D000DC5100086000000000400000E4510008BD
:1051E00001000000EC51000802000000C7020000AE
:1051F00000020000E702000000000000A08601009D
:10520000400D0300801A060000350C0040420F00DC
:1052100080841E0000093D0000127A000024F40082
:1052200000366E010048E801006CDC02000000005E
:10523000000000000000000000000000010000006D
:105240000300000005000000010000000100000054
:10525000060000000A00000020000000020000001C
:1052600004000000080000001000000040000000E2
:10527000800000000001000000020000DC4B00087C
:10528000DC4B0008444C00084C4C00085C4C000807
:105290005C4C0008001000000030537461727469A7
:1052A0006E6720626F6F746C6F6164657200257346
:1052B0003A204C65667420626F6F745F676F207769
:1052C0006974682073756363657373203D3D2025A1
:1052D0006400556E61626C6520746F2066696E644F
:1052E00020626F6F7461626C6520696D6167650033
:1052F000426F6F746C6F6164657220636861696E80
:105300006C6F61642061646472657373206F66669C
:105310007365743A203078257800496D616765209F
:1053200076657273696F6E3A207625642E25642E39
:105330002564004A756D70696E6720746F2074680B
:105340006520666972737420696D61676520736C8E
:105350006F740025733A204572726F72206765740E
:1053600074696E6720666C61736820646576696332
:105370006520626173652E207263203D20256400E4
:105380004E657665722073686F756C64206765740E
:105390002068657265006D6375626F6F7400696E79
:1053A00076616C696420666C6173682049442025CD
:1053B000643B2065787065637465642025640067CC
:1053C00070696F4034383030316330300067706955
:1053D0006F403438303030383030006770696F409B
:1053E0003438303030343030006770696F403438D2
:1053F000303030303030000D0A001B5B306D00253E
:105400007320005B2530386C755D20005B253032E1
:10541000753A253032753A253032752E2530337580
:105420002C253033755D20002573003C25733E200C
:105430000025732F0025733A200025303278200094
:10544000202020007C002563006572720077726E58
:1054500000696E6600646267006C6F675F6261631B
:105460006B656E645F7274740025733A20457272C6
:105470006F72206F70656E696E6720696D61676518
:10548000207072696D61727920617265612E20727F
:1054900063203D2025640025733A20626F6F745F9E
:1054A000676F3A2053696E676C65206C6F61646545
:1054B00072002A2A2A20426F6F74696E67204D435A
:1054C00055626F6F742065653339653264363934DF
:1054D0006264202A2A2A0A002A2A2A205573696E21
:1054E00067205A6570687972204F53206275696C25
:1054F000642076342E342E30202A2A2A0A00464C84
:105500004153485F30005352414D5F3000696E7423
:105510006572727570742D636F6E74726F6C6C65EA
:105520007240353830303038303000726363403587
:105530003830303030303000666C6173682D636F06
:105540006E74726F6C6C6572403538303034303048
:10555000300072657365742D636F6E74726F6C6C5E
:1055600065720073657269616C4034303030343478
:1055700030300073657269616C40343030313338DB
:1055800030300025733A20626F6F745F696D616718
:10559000655F6C6F61645F6865616465723A20661F
:1055A000726F6D2025702C20726573756C742025C8
:1055B00064004661696C65642072656164696E6748
:1055C00020696D616765206865616465720042618C
:1055D0006420696D616765206D616769632030785B
:1055E000256C7800496D616765206E6F7420626F6D
:1055F0006F7461626C6500496D6167652073697ADB
:105600006520626967676572207468616E206465F1
:105610007369676E6174656420617265613A202503
:105620006C75203E20256C75005465726D696E6145
:105630006C006D61696E00286E756C6C2900646F7A
:105640005F626F6F74006D61696E00626F6F745F8F
:10565000676F00626F6F745F6F70656E5F616C6C17
:105660005F666C6173685F6172656173000A06054D
:105670000504010301020101010001626F6F745F03
:10568000696D6167655F6C6F61645F6865616465C2
:105690007200000000000000545452205245474759
:0456A000455300006E
:1056AC009B390008C53A0008E4500008FFFFFFFFD3
:1056BC0000000000C33D00080000000000000000D6
:1056CC000040005800000000000000000000000036
:1056DC00000000003801002000C20100000103009E
:1056EC004401002000C201000001030000093D003C
:1056FC00C80000005401002054010020FFFFFFFFF0
:0C570C00FFFFFFFFFFFFFFFFFFFFFFFF9D
:105718000000000000000000000000000000000081
:04572800000000007D
:04572C000000000079
:0457300015E015E08B
:0400000508001529B1
:00000001FF
