:100000008047002071220000575700005D22000049
:100010005D2200005D2200005D2200000000000063
:10002000000000000000000000000000CD220000E1
:100030005D220000000000005D2200005D22000043
:1000400055240000552400005524000055240000CC
:1000500055240000552400005524000055240000BC
:1000600055240000552400005524000055240000AC
:10007000552400005524000055240000552400009C
:10008000552400005524000055240000552400008C
:10009000552400005524000055240000552400007C
:1000A000552400005524000055240000552400006C
:1000B000552400005524000055240000552400005C
:1000C000552400005524000055240000552400004C
:1000D000552400005524000055240000552400003C
:1000E00099330000552400005524000055240000D9
:1000F000552400005524000055240000552400001C
:10010000034613F8012B002AFBD1181A0138704757
:1001100030B58BB004F03AFC002400F0B1F8394B54
:1001200039490293032223462046CDE9004404F0D6
:10013000F0FB04F02AFC07A801F0F8F9334B1B6828
:1001400083420AD0324B30490094CDE90143012269
:100150002346204604F0DDFBFEE7099B03932D4B6D
:1001600029490094CDE9014320462346032204F0A7
:10017000D0FB079B2449DA8A05925A7D04921B7DA5
:100180000393254B0094CDE90143204623460322E7
:1001900004F0BFFB214B1C490094CDE901432046EC
:1001A0002346032204F0B5FB9DF8200006A900F0C9
:1001B0003BF8044600B1FEE7069A099B184D13442C
:1001C000079A128913442B6003F084FB01F090FE20
:1001D00002F06AF82B681B6883F3088884F314889C
:1001E000BFF36F8FBFF36F8F2B685B6898470D4B22
:1001F00005490094CDE9014301222346204604F03D
:1002000088FBFEE7F26C0000A0690000C810002027
:10021000066D0000246D00004E6D0000676D00004B
:1002200048060020876D00007FB5002378B1094A99
:1002300009490093CDE90303CDE9013218460122B3
:1002400004F076FB6FF0150007B05DF804FB086062
:10025000FAE700BFA56D0000A069000021B10129E7
:1002600006D06FF015007047044B53F8300070470C
:10027000024B03EBC0035868704700BFC869000019
:10028000094B0A4AC3F80026C3F80426C3F8082617
:10029000C3F80C26C3F81026C3F81426C3F8182692
:1002A000C3F81C26704700BF000001403546526E5F
:1002B0002DE9F04F91B08407009302F004030293FC
:1002C000C2F3C20303F10103DDF868A003920546FF
:1002D0000E46059340F09D81041D00284AD101F08F
:1002E0000706341DC6F10806009B00275A1E4FF072
:1002F00004084FF0FF3301930497B946BB464346C9
:100300000DB1009921600598002800F3D78090482E
:100310000099814203D38F488142C0F0CF80039976
:1003200011F0020CA4EB050040F0D680B9F10F0FDC
:1003300000F2CF80002D00F0D68009F140010DEBD6
:10034000010EC0F3870001990EF8200C0EF8101C66
:10035000BCF1000F00F0C38060F07F000EF8200CAD
:10036000013709F10109C5F10801043406914FF67E
:10037000DA7E8CE00729B7D86FF01B0011B0BDE81A
:10038000F08F7A285BD84B280FD8472857D82928D0
:100390002ED8252850D052D8202818BF23280CBF8B
:1003A0004FF0010B4FF0000B71E04C382E2846D86F
:1003B000DFE800F06D454545454545454545454522
:1003C0004845454545454545455645484856565690
:1003D0006D486A456D4518481845457F7C48454538
:1003E00048457C0000204FF0000B4FF0040835E03A
:1003F0002A38C0B2012101FA00F010EA0E0F46D1EE
:1004000010F0625C2CD110EA010B40D06046013C38
:100410004444B4FBF8F408FB04F425B1A3EB050C49
:10042000A444B445A8D8002870D005990139059195
:100430005AF8041B009163E70199013901914FF0CB
:10044000000B24E012F8010C6C2834D112F8023CA5
:1004500000206C2B8346C8D14FF008084346D6E7EE
:100460000AF1070A2AF0070A0734FAE802BC24F066
:10047000070435B106982044B0423FF67DAFC4E989
:1004800000BC08344FF0000B4FF00808434612F848
:10049000010F002853D0BBF1000F7FF472AF252865
:1004A000F5D1019B013301934FF0010B4FF004088C
:1004B000ECE7584697E700208346A8E703998807AA
:1004C0007FF551AF601B4FF0010CB0F5007FFFF4DA
:1004D0002DAF6FF0150051E74FF0000CF5E70498D1
:1004E000013004903DE7BCF1000F01D0013638E740
:1004F0000298023600287FF434AF0098CDE9063226
:10050000FFF7FEFDDDE9063206442AE7042B08D199
:100510000AF1040015B1DAF80010216004348246B3
:10052000B5E70AF1070323F0070303F1080A1DB139
:10053000D3E90001C4E9000108340823A7E7631BDD
:10054000B3F5806FC5D23DB9A6F10804E01815E7F0
:10055000A8660000D8720000029A28609B082B70E1
:100560009DF81030AAB1EB70AF702FB108A800222F
:10057000C5F1010C91450ED1C5F101030DF1200823
:100580004FF0000A01930DF1300BD14512D1601BE1
:10059000F4E66B70E8E710F8013B190608D50CEBA0
:1005A000040EB64503F07F033FF6E6AE04F8013BC8
:1005B0000132DFE71FB198F90020002A17DB029B08
:1005C000D3B11AF80B2004F8012B0022019B181953
:1005D0001044B0423FF6D0AE98F8000004F8010B8A
:1005E00000990392204606F01EF8039A14440AF17B
:1005F000010A08F10108C8E798F8002055F82230F0
:100600000093029B45F822300098FFF779FD421CC9
:10061000DCE76FF00D00B1E6014B1860704700BFDA
:10062000C00400202DE9F047058B04462807174633
:100630000CD501290CBF45F0100545F02005258398
:1006400087F31188BFF36F8FBDE8F087022905F0AB
:10065000070540F09480204604F0D9F9052864D8B5
:1006600001A353F820F000BF410600007F070000FF
:100670002B070000ED060000070700001907000027
:1006800001F007035A1F012A1FD8002221F0070199
:10069000062BD4F8008089B2C4E9002209D1434670
:1006A00003E0628B013262831B68002BF9D141F0B9
:1006B00002012183204604F0AAF94FF00009002826
:1006C0006DD041F02001218369E0042B0AD121F093
:1006D000070189B22183204604F099F910B141F055
:1006E000200121834FF00008C14658E02369D3F868
:1006F0000090238B23F0070343F0060323834FF07E
:10070000000846464BE02369D3F80490238B23F07E
:10071000070343F00403F1E72369D3F80890238B20
:1007200023F0070343F00503E8E74FF00008C14654
:10073000E7E7012243F00803238387F31188BFF31F
:100740006F8F002A3BD1B8F1000F4AD1B9F1000FE9
:1007500002D02D492046C847EFF31187202383F3A9
:100760001288BFF36F8F238B23F008039BB2238380
:10077000D9063FD523F01002228303F007056669EE
:10078000218B002EBFF67CAF0023D4F8008021F02F
:100790000701C4E9003341F0010121839946238B0D
:1007A00003F0070AAA4502D0A268002AC1D1B8F115
:1007B000000F02D1B9F1000FDAD00022BAE7A16828
:1007C0000029C0D00D680029BDD04F68334652467D
:1007D0002046B8471DB12B6829461D46F3E72B4636
:1007E000FAE74146334652462046D8F8008004F0E6
:1007F0003AF9A8E79A067FF523AF23F02002228377
:1008000003F0070527E700BF934A00002DE9F047F2
:1008100080462D4804F0CBF90646002847D0BDE8B5
:10082000F087237B83B12368DB680BB120469847B0
:10083000636883F8069023681B6983BB636804229E
:100840001968204604F0D7F9013610345445E8D32E
:10085000B8F1000FE3D04FF00109002DDFD0A8461A
:1008600095FAA5F4B4FA84F409FA04F3260107EB27
:1008700004146FEA030A25EA0305237B5BB1BB5925
:100880001B69E3B93E44042273682046196808EAEC
:100890000A0804F0B0F9002DE2D14546DDE7204614
:1008A00098470028CAD009FA06F31D43CCE7074C45
:1008B000DFF81CA0054627464FF00109C6E7204691
:1008C00098470028E7D1DDE754060020A86900001A
:1008D000B8690000014B53F820007047D069000050
:1008E00008B5034608462BB1044A136000F0F2F93C
:1008F000002008BD6FF01500FBE700BFC404002016
:100900000C4A0D48002310B513700C4A13600C4AB2
:100910004FF400411360FFF7E3FF0A4B0A49184602
:100920008B4200D310BD1A1A5C6812110132227179
:100930001033F5E708160020AB4B00004C060020F2
:1009400050060020A8690000B869000070B50B4D82
:100950002B7843B90120FFF759FF094C094EB442E7
:1009600002D301232B7070BD63685B791BB12368D0
:1009700020469B6898471034F1E700BF0816002016
:10098000A8690000B869000010B50446084804F0E2
:100990000EF95CB1BFF35B8F064B53E8001F0139C2
:1009A00043E80012002AF8D1BFF35B8F10BD00BFEF
:1009B0004C0600205006002070B50A4B0A4C1B68FC
:1009C0000A4E05469847A860B44200D370BD6368DC
:1009D0005B7923B1236829461B6820469847103469
:1009E000F2E700BFC4040020A8690000B869000055
:1009F000044A054B9B1AB1EBD30F34BF52F83100B8
:100A000000207047A0690000A8690000406820B17C
:100A1000034BC01A40F3CF0070474FF0FF307047D0
:100A2000A06900000EB403B503AB014653F8042BD4
:100A30000448019301F058FE02B05DF804EB03B0E6
:100A4000704700BFE34C0000CA0605D48B064CBFBC
:100A500002490349FFF7E6BF704700BFC76D0000BA
:100A6000C66D00002DE9F04F87B004469DF8489010
:100A7000DDF850A0169F04920D469846B9F1000F7C
:100A800000F0B08007F48073059304F0B2F807F02B
:100A9000020B0246002874D07A492046FFF7C2FFB5
:100AA0000646BBF1000F08D017F0440F6BD1764912
:100AB0002A462046FFF7B6FF064407F0010353B16C
:100AC000724B734953F82920724B2046002A08BF05
:100AD0001A46FFF7A7FF07F48073002B07F00803FF
:100AE00018BF4FF00008002B79D06B4B6B4953F8BF
:100AF00029202046FFF796FF0546049B2BB1684945
:100B00001A462046FFF78EFF0544B8F1000F05D0C6
:100B1000644942462046FFF785FF05446248354454
:100B2000139B1BB16149224603F031FF159B002B3B
:100B300000F08D80DDF854803946B8F1100F204662
:100B400028BF4FF01008FFF77FFF0026B5424FDCAB
:100B5000002633461AF8032055492046FFF762FF66
:100B60000136102E4AD0710703D152492046FFF7B3
:100B700059FFB0453346EDD84F492046FFF752FFA5
:100B8000EEE706468DE74D4B1868002894D04C4B95
:100B90004FF47A7B1B68B5FBF3F54FF46163B5FB4B
:100BA000F0F100FB11550BFB05F54FF03C0CB1FBD0
:100BB000F3F203FB1211B5FBF0FEB1FBFCF300FBFB
:100BC0001E550CFB13110BFB05F50091B5FBF0F561
:100BD0003C49CDE901E52046FFF724FF6CE707F02B
:100BE00008058AE7012B0CBF2F4837484D4697E789
:100BF00030492046FFF716FF0136A7E73349204664
:100C00000026FFF70FFF33461AF803203049A2F100
:100C100020035F2B28BF2E222046FFF703FF01365B
:100C2000102E0DD0720703D122492046FFF7FAFE9D
:100C3000B0453346E8D81F492046FFF7F3FEEEE7FC
:100C4000159BB3EB0803C24415937FF473AFB9F15E
:100C5000000F0AD0FB0704D50E4A0D492046FFF7C6
:100C6000E1FE39462046FFF7EFFE6268A168206882
:100C7000D2E9002304F027F8636800221A6007B065
:100C8000BDE8F08FCE6D0000D26D0000E06900007D
:100C9000D8700000C96D0000F4690000F76D000015
:100CA000FD6D0000016E0000E34C0000E92600002D
:100CB000066E00000E6E00000C6E00005C06002048
:100CC00058060020DB6D0000FF4C0000106E000095
:100CD000126E0000074A00210123904206D8064AFE
:100CE00001B901231360054B1860704740085B0091
:100CF0000121F2E740420F00580600205C06002068
:100D0000014B01221A70704709160020014B002088
:100D1000196070477406002010B5064B18680C4621
:100D2000FFF7D8FD21460346BDE8104002480F22D8
:100D3000184700BF74060020246A0000F8B5094D6A
:100D4000094B0A4ED5E9004701221A700CB92C60F4
:100D5000F8BD214630463A4600F00AF8241A064407
:100D6000F4E700BF680600200A1600200B160020DA
:100D7000F8B5194D07460E46042432463946002080
:100D800003F0F4FAC8B101232B70144B1B782BB974
:100D90003046F8BD5CB92C704FF0FF34002003F0F2
:100DA00075FB0028F4D02B78002BF3D1F0E7013C41
:100DB00041F2883005F0D5FBF0E72B7813B1013C08
:100DC00004D12C702B78002BD7D1E1E741F2883089
:100DD00005F0C7FBF6E700BF091600200A16002041
:100DE000014B036000207047346A000070B5104B5F
:100DF0001C680D46B4B10F4B196800238B4202DB0F
:100E00006FF0010070BD224612F8106B864202D0CE
:100E100001331446F2E7E06805F0BFFB28B12C600F
:100E20000020EFE76FF00C00ECE76FF01200E9E74D
:100E3000C8040020346A000010B588B043680293EB
:100E40008368C068CDE903320A680023CDE9062330
:100E50000C4601AA0449059304F075FD079808B9EA
:100E6000059B236008B010BD3D4E00002DE9F04FFA
:100E70009DB0DFF8E480289FD8F800400397279FB3
:100E800002970DF1500B269FCDF804B00097299DD5
:100E900081468A46164604F00CF828B1D8F800407E
:100EA00020461DB0BDE8F08F55B15A46134603CB1E
:100EB00069601CA98B4228601A4605F10805F5D126
:100EC0000023009332464FF6FF73514606A804F004
:100ED00027F805460028E1D1314648460B9F04F02B
:100EE000F8F88742DAD80DF1120304AA05A906A87A
:100EF00004F064F80028D1DB2AD1059906A804F093
:100F0000A8F8BDF8123040B914494FF6FF7031F817
:100F1000022B8242C2D09A42F9D1102BE3D1BDF804
:100F20001040202CBAD1059923460CAA304603F074
:100F300038FF0028B2D122460CA9584604F097F891
:100F40000446074B1B6883424FF00105CBD0A5E751
:100F5000012DA3D1A4E700BFD0040020C46C000081
:100F6000C81000207FB50BAB05930393054B02938C
:100F70000023CDE900330122184603F05EFE07B0DE
:100F80005DF804FB456E00000B78042B0FD00A4A75
:100F9000400052F820108B420BD0013052F8200054
:100FA00083420CBF4FF4A5704FF0FF307047032011
:100FB00070474FF4A5707047986A000070B58CB008
:100FC000836D0693582303FB010006AE036A079363
:100FD000002556F8044BA168102308AA10392046B2
:100FE00003F0DFFE80B104902378039300240D4BBF
:100FF0000293CDE900440C49234601222046FFF725
:10100000B1FF20460CB070BD0849102208A805F0B9
:1010100020FB0028F5D06B1C022B4FF00105F0D00F
:10102000D7E700BF456E0000A0690000E26C000039
:10103000164B002918BF0B4670B503F55C7243626E
:1010400003F5DC630265C3650121044604F088F8FA
:1010500010B10125284670BD0221204604F080F819
:1010600090B90421204604F07BF805460028F0D111
:10107000206A03F0D5FE0646A06D03F0D1FE86423D
:101080002CBFA666A066E5E70925E3E77806002001
:1010900010B52C2359434218146A0CB904F095FB7F
:1010A00041580D4B994206D1D16813895B1802D281
:1010B0005189C91801D300200CE0A3689942FAD2E3
:1010C000106920F4F97020F001000005000DB0FA5D
:1010D00080F0400910BD00BF3DB8F3961FB52C232A
:1010E00003FB02010A6A0AB904F06FFB0023CDE991
:1010F000023301934FF480730093034BFFF7B6FE66
:1011000005B05DF804FB00BF0C1600207FB5C56C70
:1011100004460E460DB904F058FB012104F0B7F85F
:1011200010B9E36BDB0607D52946204604F051F9D8
:10113000124B186804B070BD01212046FFF7A8FFCC
:10114000B0B90F4B18680F4B1B688342F2D00E4B9F
:1011500003930E4B029300231846CDE900330C494C
:10116000012204F0EEF80121284604F08BF8DFE7B5
:10117000012231462046FFF7B1FFE4E7CC0400200E
:10118000D0040020C81000206C6E0000766E0000B5
:10119000A069000073B50D46044600212846CDE93C
:1011A000001104F0DDF810B323681A4EB34206D1E3
:1011B00001AA204603F08FFF08B104F006FBE36AA2
:1011C000B34206D16A460121204603F084FF00287D
:1011D000F3D1DDE900239A4284BF13460192AB604C
:1011E000019A2946204600F071FB02B070BD01460D
:1011F0002046FFF7E3FE06460028DED005F1080191
:1012000003F04AFF0028D8D1AB680193304603F0C1
:10121000C7FDE5E73DB8F3962DE9F843099F0E4673
:10122000904699460024BC4201D300200EE03D1BAD
:10123000B5F5806F28BF4FF480650C4A2B4604EB50
:101240000901304603F0ADFD10B10120BDE8F8837F
:101250000899064A2B466118404603F0B7FD00285E
:10126000F3D12C44FFF70CF8DDE700BFCC100020D1
:10127000F0B58DB004460E4604F030F8054650B186
:101280009E4B02930023CDE900339D49012218466D
:1012900004F057F8FEE701462046FFF7C9FE07466F
:1012A000A8B900221146204603F0FEFF054678B398
:1012B000944A93490023CDE901320393009302221B
:1012C000184604F03EF8012384F8643010E06E23E1
:1012D00003938D4B8A490095CDE9015302222B4699
:1012E000284604F02EF801239F4284F86430D8D1B8
:1012F00094F864308DF82730042B00F29C80012B89
:1013000000F2A18000F0B780FF2384F86430B2E0DF
:10131000204600F0B5F90028D5D07C4B012708A95C
:101320002046CDE90873CDE90A5504F090F868B17C
:10133000774B73490395CDE9015300952B46022263
:10134000284603F0FEFF84F86470D1E708A804F093
:1013500007F880F0010108AAC9B2204603F0A4FFF3
:1013600005460028A4D108A803F0FAFF00283AD1C6
:1013700008A92046FFF70EFF9DF8273084F8643057
:10138000033B012B07D8284600F0F8F8054610B1BA
:10139000FF2384F864309DF82730023B022B13D8DA
:1013A000002000F0D5F8054670B1FF2384F86430C2
:1013B000584B02930023CDE90033514901221846CE
:1013C00003F0BFFF04F001FA94F86430FF2BEFD074
:1013D000002DF7D12A462946204603F065FF002854
:1013E0003FF471AFEEE79DF82730012B17D1284667
:1013F00002F002FF831E022B05460DD808A92046E5
:10140000FFF784FE444B1B68984205D0434B1D6890
:10141000A84214BF0525012584F8645068E708A98F
:101420002046FFF773FE3C4B1B6898420CBF9DF8AB
:101430002730052348E7052B7FF466AF002000F036
:101440009DF8C0B160E708A92046FFF7A3FE94F815
:101450006430DA1E012A0BD8002000F08FF818B98A
:10146000002000F075F830B1FF2384F86430A9E75C
:10147000023B012BF4D994F86430FF2B98D0002262
:10148000012B079211D01146204603F00DFF60B1E9
:10149000234B1D681022002108A805F0D2F8204631
:1014A00003F03AFF28460DB0F0BD22681D4B9A426A
:1014B0000CD00023CDE903231B4A11490093CDE949
:1014C00001321846012203F03CFFE1E700212046EB
:1014D00003F002FF0028DBD1079B01330793079B32
:1014E000012B00D0FEE7206A03F032FA3071236A44
:1014F0005B68B3603460084BCBE700BF996E0000B7
:10150000A0690000026F0000C56E0000010100012B
:10151000296F00004E6F0000C8100020CC0400208E
:10152000D00400203DB8F396556F000010B5044676
:10153000064803F002FF05482146FFF799FE0446DE
:10154000024803F02DFE204610BD00BFCC14002041
:1015500013B5094B01A913F83000FFF747FC48B950
:10156000019804F096FF0446019803F019FC204608
:1015700002B010BD0124FAE7A06A00001FB50F4BAE
:1015800001A913F83000FFF731FCA8B9019802A9AE
:1015900002F0DCFD044668B99DF80B30032B03D143
:1015A000019804F03EFF0446019803F0F9FB204641
:1015B00004B010BD0124F7E70124F8E7A06A000099
:1015C0002DE9F04F87B007468B46164603F051FDD4
:1015D000394682460020FFF7D7FCB0F1000946DB10
:1015E00000242546A0464C4513D1B8F1000F0CD07D
:1015F000002D18BF2C460323B4FBF3F35A1C03EB56
:101600004303E31A013332603371002007B0BDE8B1
:10161000F08FDBF8681001230DF1170201FB04A124
:10162000384603F0BEFB002823DB01220DF1170131
:10163000384604F092FE034638B1B8F1000F02D0EC
:10164000002D08BF25460134CDE7B8F1000F0BD0BF
:10165000002DF8D0084A09490090CDE90102012285
:1016600003F076FF04F0B1F84FF00108EBE7072034
:10167000CCE70120CAE700BF756F0000A069000039
:101680002DE9FF47D0F828E0BEF16E0F04D8D0F85E
:1016900054C0BCF16E0F0DD92E4B02930023CDE93F
:1016A000003318462C49022203F052FF002004B0F8
:1016B000BDE8F087836DD3F808A0002319461C46C7
:1016C0001D461E461A4699469846744509D36145FB
:1016D00007D3744503D1614501D1AE4238D01F4BC9
:1016E000DBE74A4519D1476A07EBC40701347F6835
:1016F00002EB0709076D07EBC10701317F683A4428
:101700004A45E2D15245164415441DD9144BCDF833
:101710000080CDE901830023C3E70BD9476A07EBBB
:10172000C407022B7F68B94401D10E4BB5E70134E1
:101730000123E5E7076D07EBC107012B7F683A44FA
:10174000F3D001310223DBE700231A469946BCE7B8
:101750000120ACE7936F0000A06900002270000038
:10176000EF6F0000BD6F0000F0B58DB004460AA910
:10177000006A02F0EBFC08B104F027F8A06D08A99C
:1017800002F0E4FC06460028F6D19DF82820012A44
:1017900067D0404B4049032A08BF0B469DF82B20D9
:1017A00007929DF82A2006929DF829203B4C3C493F
:1017B0000294CDE904323B4B039300230322CDE98D
:1017C0000033184603F0C4FE9DF82020012A4AD0B9
:1017D000304B3149032A08BF0B469DF8232007925E
:1017E0009DF8222006929DF821202D492E4DCDE90D
:1017F00004322E4BCDE902430024CDE900442346B8
:101800000322204603F0A4FE2F469DF828102878D6
:1018100004F095FD68B39DF82010687804F08FFD02
:1018200038B3AB78042B03D09DF82A209A4220D1FC
:1018300007EB8407FE78C6B1012E18D01C4B1D4A59
:10184000022E08BF134603931B4B02930023CDE9DE
:10185000003313490322184603F07AFE30460DB0D8
:10186000F0BD164B9AE7154BB7E7154BEBE7154B59
:10187000E9E70134042C05F10405C6D1124B0293AB
:101880000023CDE9003306490322184603F060FE29
:10189000E4E700BF4B700000547000008770000048
:1018A000A0690000797000008B720000C370000016
:1018B0005A7000006C700000CB7000004F70000088
:1018C000E87000001A700000DB7000002DE9F04F96
:1018D0008FB00026B44B02930446174633460322CA
:1018E0003046CDE900660D46B04903F031FE394679
:1018F000204603F008FE08968246BAF1FF3F02D167
:101900000FB0BDE8F08FA76D626AB9680023101DA3
:10191000994650F83A304B44994203D3BAF1010A40
:10192000F6D299462B680899013B9942C0F038815C
:10193000D4F82080B8F1000F01D103F046FFE36C2A
:101940000593002BF9D00AF10103A06E52F8333051
:10195000069313680793DDE90632A3EB020B03F04D
:1019600020FC002102460990204603F0A7FD626A90
:101970000A9052F83030126809EB0B019B1A994219
:1019800040F20481079BD8F808601E44069BF61AB3
:10199000099B3846F61A03F06CFB864228BF0646C0
:1019A0002B68012B40F0F480B9EB060318BF01232C
:1019B000AB712B79012B40F0ED800023BA681946FA
:1019C000384603F013FC0028B7D12B68012B1DD13A
:1019D0002A463946204603F011FD0028ADD1AB79E7
:1019E000A3B94146204603F0F4FC0028A5D12A46BD
:1019F0004146204603F002FD034600289DD10146E2
:101A0000BA68384603F0F2FB002896D10023009311
:101A1000059901965B463A462046FFF7FDFB0028F4
:101A20008BD12946204603F0A8FC02232B71002805
:101A300083D12B68012B0CD105990B93204603F021
:101A4000C8FC00287FF479AFAA790B9B002A40F0EC
:101A5000AF804A463AB105980023594603F0C6FBC9
:101A600000287FF46AAFCDE900B6059A5B4641468F
:101A70002046FFF7D1FB00287FF45FAF29462046C0
:101A800003F07BFC03232B7100287FF456AFAB7966
:101A90008BB14146204603F09CFC00287FF44DAFFB
:101AA000626A07991368CB1A06995B1A0A9952F869
:101AB000312003EB0209B9F1000F08D000234A4698
:101AC0005946404603F092FB00287FF436AFCDE93B
:101AD00000B60023424639462046FFF79DFB00280A
:101AE0007FF42BAFAB79002B39D0384603F0C1FA25
:101AF000A26E5E4452000346019200964246394669
:101B00002046FFF789FB00287FF417AF0CA9384661
:101B100002F01CFB00287FF410AF9DF83330012B3E
:101B200005D1404604F07DFC00287FF406AF9DF807
:101B30003110012906D00022404604F093FC002811
:101B40007FF4FBAEA968404603F0B4FA00287FF4A6
:101B5000F4AE404602F0D8FA00287FF4EEAE00233F
:101B6000AE79AB712946204603F007FC2B680133A0
:101B70002B6001232B71014600287FF4DEAE7EB17D
:101B8000BA68384603F076FB50B1D6E64E4607E712
:101B900000230DE7022B3FF44CAF032B3FF477AF4C
:101BA000089B01330893A8E6ED700000A0690000CF
:101BB0001946099A204603F081FC236D07991A689B
:101BC00053F830308A1A0699521A1A4442E700BF75
:101BD0002DE9F043D0E915C3D3F808E0D0F8288008
:101BE0000023044685B0194618461E461A469946F3
:101BF0001F4640451FD361451DD3A06E03F0D1FAA7
:101C0000002105460246371A204603F06AFC2A46A0
:101C100080460121204603F064FCAD1B80452CBFAB
:101C200045442D18A06E03F0C1FA854234BF401B15
:101C30000020381A2CE04A4517D1656A05EBC0052B
:101C400001306D6802EB0509256D05EBC105013119
:101C50006D682A444A45CCD17245164428D9164BA2
:101C60000097CDE9017300230CE017D9656A05EBF5
:101C7000C005022B6D68A9440DD1104B02930023BF
:101C8000CDE9003318460E49022203F061FC002022
:101C900005B0BDE8F08301300123DBE7256D05EBDE
:101CA000C105012B6D682A44E7D001310223D1E739
:101CB00000231A4699469CE7EF6F0000BD6F0000B5
:101CC000A06900002DE9F04F9DB0036802934368BE
:101CD000039383680493C368059303690693436978
:101CE000079383690893C36909938A46DDE9062C43
:101CF000DDE904B7DDE902159846DFF894E1089BB9
:101D0000009300265AF806405EF8049B0CAB24BAF8
:101D10009C514FEAF223A14483EAB213009C83EA68
:101D200072634B4424EA020402EA0C0984EA0904BF
:101D30002344434485EA0B044FEA713888EAB1082A
:101D40000C4005EA0B0984EA090488EAB158043614
:101D5000A044402E03EB070443445F46DDF80080B7
:101D600040F087804B4E0A964FF0100A56460AF113
:101D7000010A0DF1700E0AF00F070EEB870706F04F
:101D80000F0957F8407C01974FEAB74888EAF718DF
:101D900006F10E0707F00F070EEB8707093657F815
:101DA000407C4FEAF74E8EEA774ECDF82CE006F0F5
:101DB0000F060DF1700E0EEB86060EEB890956F834
:101DC000406C59F840EC7644DDF804E088EADE081F
:101DD000DDF82CE046448EEA972E764404EA0208A9
:101DE0004FEAF42E2CEA040787EA08078EEAB41EAD
:101DF000DDF8288049F8406C8EEA746E774458F814
:101E000004EFCDF8288077443744009ECDF800C019
:101E10003E444FEA733E81EA05078EEAB30E1F4047
:101E200001EA05088EEAB35E87EA08077744BAF14B
:101E3000400F06EB0B0E3744AB4622D1029E3E44C8
:101E40000660039E1E44049B46600B448360059B12
:101E50002B44C360069B73440361079B2344436187
:101E6000089B13448361099B6344C3611DB0BDE8B3
:101E7000F08FCDF800C0AB4694460D462246194679
:101E800040E794460D462246194674463B466DE7A8
:101E9000A86A0000E46A000010B50446C8B17022C8
:101EA000002103F048FC0B4B0B4A0C490C48C4E9D9
:101EB00000230C4BC4E902130B4BC4E904030B4B86
:101EC000A36103F17453A3F52303A3F69243E361E3
:101ED000012010BD85AE67BB67E6096A72F36E3CF0
:101EE0007F520E513AF54FA58C68059BABD9831FE5
:101EF000BFF36F8F72B6124B4FF0FF32C3F88020E2
:101F0000C3F88420C3F88820C3F88C20C3F890203D
:101F1000C3F89420C3F89820C3F89C20C3F880210C
:101F2000C3F88421C3F88821C3F88C21C3F8902119
:101F3000C3F89421C3F89821C3F89C21704700BFCF
:101F400000E100E008B5044802F054FDBDE8084097
:101F5000024802F04FBD00BF147100003A7100004A
:101F600008B50348034A0021121A03F0E6FB08BD36
:101F7000A0050020141700200748084A084908B5A2
:101F8000121A03F0DCFB0748074A0849BDE808407D
:101F9000121A03F0D4BB00BFC00400209C0500202F
:101FA000E0720000B8040020C0040020D8720000D5
:101FB00030BFFFF7FDBF00BF70B5264B15469A6ACC
:101FC00012F0100F9A6A14BF1124102412F0080F97
:101FD0009A6A18BF1224920706460AD5586B9A6A65
:101FE000140634D519B19A6A22F080029A62132439
:101FF00001E06FF01500174B9A6A12F0010F9A6A10
:1020000018BF142412F0200F9A6A18BF1524D206A4
:1020100002D49B6A9B070AD50E4B5B68190506D54F
:10202000314600F0D7F910B180F309880224094B3A
:102030009A6A920642BF5A6A22F400525A629A6A17
:1020400042F0FF029A6200232B70204670BD6FF0B1
:102050001500CCE700ED00E0134B9A6A12F0007F08
:102060009A6A14BF1E201D2012F0807F9A6A18BF42
:102070001F2012F4002F9A6A18BF212012F4802F1B
:102080009A6A18BF222012F4003F9A6A18BF2320D0
:1020900012F4803F9A6A6FEA02426FEA12429A6231
:1020A00018BF2420704700BF00ED00E010B5194BA9
:1020B0000246986A9C6A10F4805F14BF17201620AD
:1020C00014F4006F9C6A18BF1820A40509D5986BFA
:1020D000986A000404D51AB19A6A22F400429A62FE
:1020E00019200C4B9A6A12F4806F9A6A18BF1A2052
:1020F000D2050CD49B6A13F4005F18BF1C20054A5C
:10210000936A43F47F43936200230B7010BD1B203E
:10211000F5E700BF00ED00E0F0B5494B5B688BB020
:102120000446C3F30803002585F31188BFF36F8FBE
:1021300002F07F40B0F17F4F11D102F00C0008286F
:102140000DD010074CBF0C4601250022033B8DF833
:102150000720032B05D8DFE803F024686C652C46C4
:10216000F3E700239DF80720CAB902AE04F1200767
:1021700020686168324603C20834BC421646F7D173
:10218000099A002D59D0C2F3080121B96FEA5222F1
:102190006FEA4222099202A9184603F0D2FA0BB064
:1021A000F0BD274BDA6A9107DBD4DA6A002AD8DB64
:1021B000DA6A5200D5D55A69A16942F480725A612F
:1021C000BFF34F8FBFF36F8F31F8022C596921F4A1
:1021D00080715961BFF34F8FBFF36F8F02F47F435C
:1021E000B3F55F4F04D1D2B2022A01D12368B9E717
:1021F000134B9A6AD2B23AB10DF10702012120467F
:10220000FFF7DAFE0346ADE79A6A12F47F4F05D076
:102210000DF107010120FFF749FFF3E79B6AB3F5D2
:10222000803F9ED3FFF718FFECE70DF10702002176
:10223000E5E70DF107010020EDE76FF30802A9E7DC
:1022400000ED00E0044B5A6942F010025A615A69ED
:1022500022F008025A61704700ED00E0EFF30880B9
:10226000EFF3098101B57246FFF756FF01BD00BFCC
:102270000B4880F3088801F05FFB202080F3118871
:1022800008484FF40461401880F30988EFF3148084
:102290000221084380F31488BFF36F8F00F07EF8AB
:1022A00080470020401700200749D1F890200023E4
:1022B000C2F307221846934200DB7047C1F89830FA
:1022C000C1F8A0000133F6E700ED00E01EF0040FB6
:1022D0000CBFEFF30880EFF30980816911F8021C4D
:1022E0000229FFD001B5724603F031FA01BD00BFEB
:1022F00040B2002807DB044A4109012300F01F0017
:10230000834042F82130704700E100E040B20028ED
:102310000CDB4309064900F01F00203301228240F4
:1023200041F82320BFF34F8FBFF36F8F704700BF7B
:1023300000E100E0054B420900F01F0053F82220A5
:10234000012303FA00F01040704700BF00E100E0F5
:1023500040B20028A8BF00F1604001F10101B8BF00
:10236000064B4FEA4111ACBF00F5614000F00F0091
:10237000C9B2B4BF195480F80013704714ED00E0DF
:10238000044B054A23F07F039360BFF34F8FBFF3E5
:102390006F8F70470000000000ED00E008B5FFF708
:1023A000EFFF0B4AD2F8883023F47003C2F888306C
:1023B000EFF3148323F0040383F31488BFF36F8FC8
:1023C000FFF7CEFDFFF7D8FD00F038F802F0AEF8C9
:1023D00000ED00E010F1160F074B08D0984208D32B
:1023E0004033984205D2994203D2044870474033A3
:1023F000F9E70020704700BF801F0020C01F0020A9
:1024000080B50C4607461546084E86F3098800201D
:1024100004498847204629461A46B847024880475B
:10242000FEE700006D5700007B570000C04700200A
:10243000014B10221A61704700ED00E004480023B0
:102440002021C2180133302B82F80013F9D17047D4
:1024500000E100E008B5EFF30583064A103B02EB0C
:10246000C30152F8330049688847BDE8084003F0CB
:102470009BB900BFB0670000024B034A034802212A
:1024800000F066B80000042000000020A86B0000E7
:10249000084AC2F898000B6823F01F03034343F077
:1024A0001003C2F89C308B6843F00103C2F8A030DF
:1024B000704700BF00ED00E02DE9F043DFF86080D9
:1024C00085B00E461F4604464FF00009B14523DA99
:1024D0006068D8B13FB1411E08421BD11F2819D9ED
:1024E0002368194216D12368019303F05EF9A368AB
:1024F00003430393D8F89050C5F30725D0B2013DAC
:10250000A84207D801A9FFF7C3FF421C09F101093E
:102510000C34DBE76FF01502104605B0BDE8F08320
:1025200000ED00E0044B0522C3F89420BFF34F8F69
:10253000BFF36F8F704700BF00ED00E0BFF35F8F08
:10254000024B0022C3F89420704700BF00ED00E06A
:1025500010B5034C01232278FFF7AEFF207010BDA9
:102560000C1700202DE9F0435A4B5B4DD3F8903007
:102570002C68C3F307239C4285B000F2A780FFF7C5
:10258000DDFF00200C2684421AD1544EDFF844911E
:1025900034706846FEF724FC514C524D80460027AB
:1025A000B84514D133784B490020D1F89020C2F3BC
:1025B00007229342C0F28480FFF7B4FF002045E079
:1025C000696806FB0011FFF763FF0130DBE7009845
:1025D00000EB07114FEA071CCB682340B3F5000F4F
:1025E0004DD00AD8B3F5001F33D0B3F5800F3BD0E0
:1025F000B3F5801F13D00137D2E7B3F1007F47D086
:10260000B3F1805F4DD0B3F1807FF4D150F80C303E
:1026100088684A6803F0C9F840F0887009E050F80B
:102620000C3088684A6803F0C0F840F0885040F4E5
:102630003020CDE901230390D9F890303078C3F3EE
:102640000723013B984234D96FF0150005B0BDE86F
:10265000F08350F80C3088684A6803F0A6F840F020
:10266000885040F40020E4E750F80C3088684A684D
:1026700003F09BF840F0007040F40030D9E750F8C8
:102680000C3088684A6803F090F840F08270D0E718
:1026900050F80C3088684A6803F087F840F48020CE
:1026A000C7E750F80C3088684A6803F07EF8284382
:1026B000BFE701A9FFF7ECFE3378013333709AE7E7
:1026C000C1F89830C1F8A00001336EE74FF0FF3039
:1026D000BCE700BF00ED00E0C06B00000C1700205D
:1026E0000000F0FF00000211F0B587B007460E466B
:1026F00014460021102268461D4603F0A2FF022363
:102700008DF802302A46054B019321466846CDE9F3
:10271000047601F0C5FF07B0F0BD00BFD15700003F
:1027200008B5024B1B689847002008BD38150020EB
:10273000034B044A1860937843F002039370704788
:1027400038150020D404002008B5054802F052F9DD
:10275000002383F31188BFF36F8F0423184602DF31
:102760006F7100000C4B0122C3F840254FF08043ED
:102770004FF08051C3F87825D1F83001082805D1F1
:10278000D1F83411022908BFC3F838260122C3F852
:1027900080250020704700BF00E0014048B1054B94
:1027A000054A1B68B3FBF2F35843044B43F00103A3
:1027B000184770477C05002040420F00C0690000A8
:1027C00008B5054A054B136010463F23536001F0DE
:1027D0008FF9002008BD00BF3C150020FFFF0F004F
:1027E000084B70B5C31A0D4607499B100446594360
:1027F0000648402203F000F82B4601462046BDE87B
:102800007040184758150020B76DDBB60867000008
:1028100073B50C4C0C4A4023041B00930D460B4629
:102820000A49A41061430646094803F011F801461D
:1028300028B130462B4602B0BDE87040184702B0C0
:1028400070BD00BF58150020C3580000B76DDBB63F
:10285000086700000022F8B5012105461046FFF781
:1028600077FD104801F06CF90446B8B901F088F919
:102870002F690D49384602F019F9031E09DB0126BC
:102880003E642D69084905F11C0002F00FF9031E92
:1028900002DA1C462046F8BDEE64FBE76FF0040444
:1028A000F8E700BFA5290000E06B000010B5EFF3CA
:1028B0001184202383F31288BFF36F8F074A1368B4
:1028C00023F00201DB07116002D4012003F01AFAA1
:1028D00084F31188BFF36F8F10BD00BFA8150020CF
:1028E00030B4104B0C2202FB003301460020D3E928
:1028F0000E529863EFF31180202484F31288BFF303
:102900006F8F1C6C04F0C00444F002041C6480F35C
:102910001188BFF36F8F1DB12B46034830BC184799
:1029200030BC7047581500200867000010B4EFF362
:102930001180202282F31288BFF36F8F17490B6832
:1029400043F0020413F001030C601AD04FF08043EF
:10295000D3F80C14D3F80C3413F0010311D0EFF3B7
:10296000118182F31288BFF36F8F0D4A136C03F04D
:10297000C00343F00203136481F31188BFF36F8F28
:10298000012380F31188BFF36F8F1BB110BC0020AF
:10299000FFF7A6BF10BC012003F0ACB9A8150020BA
:1029A0005815002010B1012804D07047034B1B6C50
:1029B0005B0701D1FFF794BF704700BF5815002097
:1029C0002DE9F0413549BFF35B8F0746012251E8FD
:1029D000003F41E800200028F9D1BFF35B8F33B9F5
:1029E0002F4930484B60CB608A6002F072F87B1E42
:1029F000012B4AD8012F07D14FF08043D3F81C3464
:102A000003F00303012B40D003F0F0FD054660B155
:102A1000EFF31186202383F31288BFF36F8F012514
:102A20004FF080444FF001081EE01F4B1B78002B35
:102A3000EED04FF080430222C3F808230646EFE7AA
:102A4000304602F0A2FED4F81835184A63B9D4F81B
:102A5000041149B1C4F80431D4F80431C4F818851C
:102A6000C2F88081C4F80880D4F81814D4F8183457
:102A7000CA03E5D503F00303012B01D0012FDFD1F9
:102A80002DB186F31188BFF36F8FBDE8F0814FF051
:102A900080430222C3F80423F7E700BF5415002047
:102AA00044150020741500201117002000E100E0FB
:102AB00008B50448FDF7B0FD0248FFF739FE0020D5
:102AC00008BD00BFC92A000073B50C4E8DF8070081
:102AD0000446032501220DF10701002001F0BCFC92
:102AE00020B101233370204602B070BD3378002B33
:102AF000F9D0013DEED13570F5E700BF0D1700208C
:102B0000024B0B6001231360704700BFAC1500201F
:102B100000487047046C000010B503F0F7FB034C4D
:102B2000206003F0EFFB6060002010BDAC150020BA
:102B30004FF08042D2F81015D2F8103501F01E0186
:102B400023F01F030B4343F00103C2F81035024B7F
:102B500000221A70704700BF0E1700204FF08053FC
:102B6000D3F83031082B20D14FF08042D2F8101525
:102B7000CB071AD5D2F8103501F01E0123F01F0340
:102B80000B43C2F81035D2F808315BB1D2F81035DA
:102B900023F01F030B4343F00103C2F810356FF01D
:102BA0008B007047024B01221A700020704700BF53
:102BB0000E1700202DE9F0410D46164603F0A2FB4A
:102BC00031460746284602F0F3FE28B3B5FBF7F37B
:102BD00007FB135303BBB6FBF7F407FB1464DCB924
:102BE000B74213D803F08EFBDFF834800746FFF7B7
:102BF000B5FF044668B9284601F05CFA98F8003041
:102C00000BB1FFF795FFF61B3D44F0D12046BDE820
:102C1000F0816FF08B04F9E76FF01504F6E700BF61
:102C20000E1700202DE9F8430E4630461946174688
:102C30001C4602F0BDFE30B346EA040515F003055C
:102C400021D11CB3DFF8489024F00304AC4206EB1A
:102C5000050807D10F4AD2F80034DB07FBD5002066
:102C6000BDE8F883FFF77AFF50B97959404601F083
:102C70003DFA99F800300BB1FFF75AFF0435E5E74C
:102C80006FF08B00ECE76FF01500E9E72046E7E70F
:102C90000E17002000E001402DE9F043476840F2A4
:102CA0000636D0063B7C87B002EA060654BFC2F364
:102CB000401C4FF0030C01F01F05B6F5837F14464E
:102CC00045EA43158DF803C044D00DD8062E16D022
:102CD00005D8A6B1022E3FD06FF0150037E0B6F54B
:102CE000807FF9D101260AE040F20222964235D0D7
:102CF000B6F5407F34D0B6F5007FEDD10226220331
:102D000030D57A6801238B40C2F80835B868A0BB7B
:102D100005F01F036D092DD0012D77D13E4A02EB3E
:102D20008302C4F30043D2F8001783F00103C4F315
:102D3000404444EA430421F4E16144EA8C0421F074
:102D4000070144EA06230B43C2F80037002007B00E
:102D5000BDE8F0830726D2E70426D0E70526CEE7B4
:102D60000326CCE7630341BF01237A688B40C2F896
:102D70000C35CBE74FF0A042D1E70DF10202294616
:102D800003F030FA14F4403F80460CD1B86829466D
:102D900003F05DFAB8F1000FD8D19DF80210B868C1
:102DA00001F084F8D2E74FF0000901ABCDE90199B9
:102DB000CDE90439CDF80C90B86803AA294603F090
:102DC000E6F84845C2DB14F4003314D0C4F30044E1
:102DD0009DF803308DF80E3084F001048DF80C60FE
:102DE0008DF80D40B8684B4603AA294603F082F9D6
:102DF0000028CFDAAAE7CDE904330DF103030393EA
:102E0000B86803AA294603F0C2F8F1E703F5E073B6
:102E100050F82330FFDE00BF00030050420970B5B8
:102E2000034602D0012A17D070BD0D4E3269516899
:102E30000029F9D003F01F0301250C689D400029EB
:102E4000F2D08A682A4002D04B68304698472CB1AD
:102E5000236821461C46F2E7024EE7E72346F8E7DF
:102E6000406700002467000038B54568A86890B145
:102E700003F0E7F9014670B9A86803F0C6F9044603
:102E800058B902460649A86803F0A9F92246052167
:102E90000620FFF75DFA002038BD6FF00400FBE765
:102EA0001D2E0000F0B545681646A8682A7C01F082
:102EB0001F0487B044EA4214002869D0B6F5001F09
:102EC00004D1214603F016FA002052E001AA0020A6
:102ED000B6F5800F0190506037D1B3F1007F14BF79
:102EE000052304238DF804300023CDE90423039344
:102EF000EB6823FA01F111F001010DF103073AD15A
:102F0000B6F1A07F37D104F01F03620903F5E07327
:102F100026D0012A3FD1214A52F82330DB072AD498
:102F2000A8683A46214603F05DF916301BD0029797
:102F3000A86803AA214603F02AF8002819DBA8682C
:102F40000122214603F085F9BEE7B3F1C06F05D039
:102F5000B3F1007F14BF01230223C3E70323C1E7BA
:102F60004FF0A042D8E7A868394600F0A5FF002836
:102F7000DDDA07B0F0BDA8683A46214603F032F921
:102F80000028D5D19DF80310A86800F08FFFCFE787
:102F90006FF08500EDE751F82330FFDE00030050AD
:102FA000036803F01F025B09026004D0012B034891
:102FB00018BF002070474FF0A0407047000300503A
:102FC0002DE9F04FDFF86C8185B01546824600EBA5
:102FD00081010127514503D1002005B0BDE8F08FE4
:102FE000DAF80030C3F3C72B1BF0080BC3F3C3227E
:102FF000C3F3080440F0978018F802601B0E40F2FB
:10300000FF12944208BF4FF0FF34222B00F28E8053
:10301000DFE803F0122227642A5F648C8C8C8C67B3
:10302000728C8C8C8C8C8C8C8C8C8C8C8C8C8C8CFA
:103030008C757A7D80838600C5F80C45601C45D070
:1030400003A80394FFF7ACFF039B07FA03F3C0F850
:1030500008354FF0010916E0C5F814454FF0000996
:1030600046E0C5F80845E9E7C5F808454FF000090E
:10307000631C2BD003A80394FFF792FF039B07FA6E
:1030800003F3C0F80C350122DAF80030019303F4A1
:103090000040002803A80CBF93464FF00109039499
:1030A000FFF77EFF039A019B00EB8200C3F34124EC
:1030B0003302D0F8002743EA84031F4C43EA0B0392
:1030C0001440234343EA4903C0F800370AF1040AD5
:1030D00080E7C5F80C454FF00109C9E7C5F8104570
:1030E000BCE7C5F80845002EB8D14FF00009062608
:1030F000621CEBD00022C7E7C5F80C45F3E7C5F822
:1031000024454FF00109F3E7C5F8284596E7C5F8CF
:103110003045F6E7C5F83445F3E7C5F83845F0E73C
:10312000C5F83C458AE76FF0150056E76FF085005B
:1031300053E700BF9B720000F0F8FCFF074BD3F889
:10314000082142B10020C3F80801D3F80821D3F8C0
:1031500018350B7070474FF0FF307047002000406B
:10316000024BD3F88004C3F880047047002000406D
:10317000F8B50E4603F03AFA1A4D78BB64240127DD
:10318000BFF35B8F55E8003F002B03D145E8007289
:10319000002AF7D1BFF35B8F07D04FF47A70013C60
:1031A00003F0DFF914F0FF04EAD10F4C0023C4F858
:1031B0001C31D4F81C310123A360C4F81C6542F211
:1031C0001076D4F81C3123B9012002F042FD013EF3
:1031D000F7D10123E36000232B60F8BD01232B60AE
:1031E000E3E700BFCC15002000200040F7B55C4AA3
:1031F000436805690024C2F800451F68064601AA15
:103200002146384602F051FC00280FDB019B3A684A
:1032100019791868FFF7D4FE002807DB6B79366947
:10322000012B06D0032B03D06FF0850003B0F0BD57
:103230001024AB79032BF7D1EB79002BF4D129794A
:1032400011B10229F0D10E212B68B3F5164F68D0C9
:103250002BD8B3F5165F66D014D8B3F5966F64D04B
:1032600008D8B3F5967F63D0B3F5167FDCD14FF461
:103270001C3341E0B3F5166F5DD0B3F5965FD3D143
:10328000384B39E0B3F5E14F58D007D8B3F5615F5B
:1032900056D0B3F5964FC7D1334B2DE047F61222E7
:1032A0009342C1D14FF4000326E0B3F5613F4AD009
:1032B00011D8B3F5963F48D008D84DF6C0229342B6
:1032C00045D0B3F5614FAFD1284B15E0B3F5E13FE1
:1032D000AAD1274B10E0B3F5612F3BD007D8254A80
:1032E000934239D0B3F5E12F9ED1234B04E0234A1A
:1032F000934299D14FF08053194A0C43C2F82435B8
:10330000C2F86C4595E8030086E80300042300201A
:10331000C2F80035C2F80801D2F808310123136061
:1033200084E7174BE8E7174BE6E74FF49E23E3E704
:103330004FF4A033E0E74FF41D23DDE7124BDBE74A
:103340004FF46C13D8E7114BD6E7114BD4E74FF489
:103350006503D1E70F4BCFE74FF08063CCE700BFA9
:103360000020004000B0130000A04E0000F0EB0071
:1033700000E0D70190D0030000705F0740420F00CB
:1033800000509D000050270000F0750000B0AF0312
:1033900000903A0100D0BE0E684620F007018D462D
:1033A00001B5134BD3F80423D20517D5D3F8202148
:1033B000A2B1EFF31182202181F31288BFF36F8F46
:1033C000D3F8201131B10021C3F82011D3F8201116
:1033D0000121D96082F31188BFF36F8F044BD3F8BA
:1033E000583102F0E1F9BDE801408546704700BF61
:1033F000008002402DE9F041044647680D4603F085
:10340000F5F888B14FF02008EFF31186314688F3C4
:103410001288BFF36F8F606802F074FB30BB86F3D5
:103420001188BFF36F8FEFE71D4B1B78002BE9D09E
:103430004FF020086426606802F064FB50B9012058
:1034400002F007FC013EF6D1F4E786F31188BFF3E2
:103450006F8FEFE7EFF31186314688F31288BFF3E1
:103460006F8F606802F04EFB0028EED0BB691D70C4
:103470006368BA691B680020C3F844250122C3F8B9
:103480004825C3F82001D3F82041C3F85801D3F8E8
:1034900058019A6081F31188BFF36F8FBDE8F08106
:1034A0001117002070B5012383400F4ABFF35B8FD3
:1034B000DC4352E8001F01EA040542E80056002EF2
:1034C000F7D1BFF35B8F4FF4803282400748C0F8DA
:1034D0000823BFF35F8FBFF36F8F03EA010000384B
:1034E00018BF012070BD00BFE01500200010014092
:1034F00070B41249D1E90034D01AC31844F1000461
:1035000022F07F46C1E90034A6F50013B3F5400F61
:1035100009D20B4B1B681A0A1B069C19094B42F176
:103520000005C3E90045EFF31181202383F31288DE
:10353000BFF36F8F70BC01F059B800BFB005002019
:10354000E4150020B805002011B3BFF35B8F012301
:10355000104A834052E800CF4CEA030C42E800C115
:103560000029F7D1BFF35B8F0B4A4FF480338340C0
:10357000C2F80433094BBFF35B8F1B68BFF35B8F4B
:10358000C340DB0742BF064B4FF40032C3F80021B3
:10359000704700BFE015002000100140DC1500203E
:1035A00000E100E00D4B1868010A0006BFF35F8FD1
:1035B0000B4BD3F80435181841F10001B3F5801F07
:1035C0000AD2084BD3E90023904271EB030303D2E4
:1035D00010F1807041F10001704700BFE415002038
:1035E00000100140B80500202DE9F04F85B01646C7
:1035F0001F469DF840A00446FFF754FF0190FFF7D7
:10360000D1FFB04271EB07035ED23E4B301A67EB3D
:103610000101984271F1000109D36FF015052046B0
:103620000199FFF791FF284605B0BDE8F08F364BB2
:1036300003EB0413D3E902239F4208BF964254D000
:1036400032494FF4803804F1500508FA04F8AD000F
:10365000C1F848832046ADB202F0DBFA26F07F4B7A
:1036600005F1804504F5A87305F58835DC464FF073
:1036700003090293029A2CF07F4341F82230C1F8EB
:103680004483D1F80435224A6FF00200C01A604426
:1036900020F07F40904228D9286868B1D1F80435DD
:1036A0000393A3EB0B0020F07F40B0F5000F1CD973
:1036B000204602F0AEFA039BBAF1000FADD109EB40
:1036C000030C09F10109D5E7BAF1000FA5D10123D7
:1036D000104ABFF35B8FA34052E8000F184342E843
:1036E00000010029F8D1BFF35B8F07490E98230131
:1036F00001EB0412C8500F9B5360C2E9026700251A
:103700008DE700BF01008000A005002000100140EF
:10371000FDFF7F00DC1500207FB51C4C1C4BC4F85E
:103720000833C4F848331B4B00254FF0FF304FF0EF
:10373000FF31C4F80855C3E902014FF48033C4F8DF
:103740000433154B02264FF400320121C4F8046300
:103750001120C3F880212A46FEF7FAFD1120FEF75A
:10376000C7FD0E4A0123A360236013600C4B0D4A72
:103770000093CDE9015500232846FFF735FF304679
:10378000FFF71EF9284604B070BD00BF00100140CD
:1037900003000F00A005002000E100E0E01500207C
:1037A000F1340000FFFF7F002DE9F7432E4CD4F8E1
:1037B000043399070BD5D4F8043143B12B4A0023C5
:1037C000C4F80431D4F80431136801331360D4F819
:1037D0000433DA0343D5BFF35B8F254B53E8002F47
:1037E00022F0010143E800100028F7D1BFF35B8FFE
:1037F000D30702D4D4F840318BB30025C4F840512C
:10380000D4F84031FFF7CEFEEFF31182202383F38B
:103810001288BFF36F8F174BD3E90267B042B941EB
:1038200020D34FF0FF304FF0FF31C3E90201D3E95D
:1038300000981D604FF48033C4F84833C4F84051F9
:10384000D4F8403182F31188BFF36F8FB9F1000FC4
:1038500005D0CDF8008032463B460020C84703B073
:10386000BDE8F083A946EDE700100140E415002013
:10387000DC150020A005002030B5431C124C85B09B
:1038800005D08442A8BF0446012CB8BF0124FFF72D
:1038900089FE0E4B0C4DD3E90013401AB0F5000F12
:1038A00010D22218AA4228BF2A4652184FF0000010
:1038B00007490091CDE9010043F10003FFF794FEB1
:1038C00005B030BD2A46F0E7FFFF7F00B0050020BD
:1038D000F134000010B5084C012363601120FEF79D
:1038E00015FD064BC4F80833C4F84833044B4FF4B5
:1038F0000032C3F8802110BD0010014003000F000A
:1039000000E100E0BFF34F8F0549064BCA6802F49F
:10391000E0621343CB60BFF34F8F00BFFDE700BFF2
:1039200000ED00E00400FA05024AD2F80034002B52
:10393000FBD0704700E0014010B54FF08053D3F842
:103940003021082A4ED14FF080420021C2F80C11DC
:10395000C2F81011C2F8381502F54042D3F8041429
:10396000C2F82015D3F80814C2F82415D3F80C14A3
:10397000C2F82815D3F81014C2F82C15D3F8141473
:10398000C2F83015D3F81814C2F83415D3F81C1443
:10399000C2F84015D3F82014C2F84415D3F8241403
:1039A000C2F84815D3F82814C2F84C15D3F82C14D3
:1039B000C2F85015D3F83014C2F85415D3F83414A3
:1039C000C2F86015D3F83814C2F86415D3F83C1463
:1039D000C2F86815D3F84014C2F86C15D3F8443413
:1039E000C2F8703502F025F918B13C4B3C4AC3F8D7
:1039F0008C2602F01EF918B13A4BFB22C3F81825A9
:103A000002F017F958B14FF080424FF08051D2F8D0
:103A1000E43ED1F8581261F30303C2F8E43E02F029
:103A200008F920B1304B4FF40072C3F840264FF034
:103A30008053D3F83031082B17D14FF08043D3F89F
:103A40000024D20744BF6FF00102C3F800244FF0F6
:103A50008053D3F83431042B81BF4FF01023D3F8B7
:103A600008224FF08043C3F858254FF01021D1F8B9
:103A70000C32DB0714D51D480123C0F80435FFF7CD
:103A800053FFD1F80C3223F00103C1F80C32FFF7D9
:103A90004BFF0023C0F80435FFF746FFFFF732FF66
:103AA000D1F80032002B03DBD1F80432002B14DAFA
:103AB0000E4901234FF01020C1F804351224FFF7FE
:103AC00033FFC0F80042FFF72FFFC0F80442FFF7B2
:103AD0002BFF0023C1F80435DEE710BD0050004085
:103AE0004881030000F000400090024000E00140E7
:103AF000014B1860704700BFE815002010B5054B5A
:103B00001868144602F0A7F80028A4BF207000200F
:103B100010BD00BFE8150020024A01238340C2F80F
:103B20000435704700F00140014B00201B68184726
:103B3000EC150020014B1B68184700BFEC15002056
:103B400010B50C4C237993B9012323710A4B2060E3
:103B5000002818BF184600F049F850B923680748F4
:103B6000002BBDE8104008BF184600F08FB86FF07A
:103B7000770010BDEC150020293B0000353B00000C
:103B800008B5064B1B683BB10020FEF7D3FB18B904
:103B9000BDE80840FEF7ACBB08BD00BFEC15002037
:103BA00038B54FF080440123C4F808336360002324
:103BB000C4F80031D4F8003142F21075D4F80C2466
:103BC000D4F80C34D20307D5DB0705D5012002F069
:103BD00040F8013DF2D138BD02F0A3F80028FAD038
:103BE000014B00225A71F6E7F415002010B5084980
:103BF0000C794CB9012308600B7102F092F808B9F6
:103C0000002010BD4C71FBE76FF07700F9E700BFB3
:103C1000F41500204FF080430022C3F80021D3F8B0
:103C20000021094901221A60096811B1C3F804236F
:103C30007047D3F80021002AFBD00022C3F80021EE
:103C4000D3F80031704700BFF415002010B54FF0D5
:103C50008043D3F80423D20715D5D3F8002192B1BD
:103C60000022C3F800210121D3F80021C3F8081372
:103C700002F057F8044B10B15A7922B95971BDE8D6
:103C800010401B68184710BDF4150020074A13792F
:103C900043B90121106011714FF080421846C2F8FB
:103CA000183570476FF07700704700BFFC15002093
:103CB00010B54FF080431D4CD3F81814D3F81824D6
:103CC00011F4803F1AD002F00302012A01D092B908
:103CD00000224FF08043C3F818250022C3F80421C6
:103CE000D3F8042101229A6022688AB9D3F804210A
:103CF000002AFBD014E002F025F8E9E7D3F81424F9
:103D0000D107E5D5D3F81C249207F4D422681AB160
:103D10000222C3F8042310BDD3F80421002AFBD0EB
:103D20000022C3F80421D3F80431F4E7FC15002085
:103D3000F8B54FF08043194FD3F80443012504F040
:103D40001A04002604B9F8BDB4FA84F0C0F11F00CB
:103D5000830003F580739BB203F1804305FA00F200
:103D6000196892B224EA02040029EBD01E601B6895
:103D70004FF08043022AC3F808230BD1D3F818145C
:103D8000D3F81814890705D1C3F81855C3F80423CC
:103D90009D60D7E73B68C0B29847D3E7FC15002089
:103DA000036803F01F025B09026004D0012B034883
:103DB00018BF002070474FF0A0407047000300502C
:103DC000034A430900F01F00D35C1844C0B2704797
:103DD000A3720000024611F0010030B515D18B0727
:103DE000C1F3400022D51249D1F8200550604FF0B0
:103DF0008052C1F82005D2F83021082A08BFD1F836
:103E00002025003818BF012010E04FF0A0444FF0EB
:103E10008055D4F820351360C4F82035D5F83051DA
:103E2000082D08BFD4F82045002BD8D030BD00BFE6
:103E300000030050F7B504460846FFF7C1FF04EB46
:103E400040060D46B38ADB072AD5204602F07DF8EE
:103E50002946204601F0E9FF50B1204601F0FBFF62
:103E6000276807EB80000023C0F81035C0F8103534
:103E70002946204602F018F80021B18201A80195D8
:103E8000FFF78EFF019B00EB8300074BD0F8002764
:103E9000134043F00203C0F80037084603B0F0BDFA
:103EA0006FF01500FAE700BFF0F8FCFF014801F0E1
:103EB000F0BE00BF8005002010B504480C4601F09C
:103EC000CAFE0028A4BF2070002010BD800500207D
:103ED0002DE9F04F074689B057F8049BD9F8041331
:103EE000C9B28346082241F00041484602F005F875
:103EF000051E2FDA0023032106A8CDE90633FFF7BC
:103F000069FF634B01930DF118084FF0000A019A05
:103F1000604912F8013B0192DA0803F007038A5C5A
:103F200022FA03F3DB071CD40AF10103022B08F188
:103F300004084FF0010AEAD14FF000410022484640
:103F400001F0DBFF032106A8FFF744FF0028D8D1CA
:103F500025F000450124002D40F0848009B0BDE823
:103F6000F08F4D4B53440293D8F80060002EDBD005
:103F7000029B96FAA6F61C78B6FA86F646EA441430
:103F80002046FFF71DFF0BEB4000F208818A18F86E
:103F900002000594C1F382030393009306F0070621
:103FA000012303FA06F620EA060008F8020005A835
:103FB000FFF7F6FE059A039B02F5E07211F0100F71
:103FC00050F82260C6F3014633D0009A38462146A5
:103FD00001F04BFF05A80594FFF7E2FE059B03F5F2
:103FE000E073F6B250F82330C3F301439E4207D189
:103FF0000021204601F00AFF3146204601F006FF6D
:1040000005A80594FFF7CCFE059B012202FA03F3F5
:10401000C0F820354FF08053D3F83031082B01BF62
:10402000D0F82035D0F82035D0F82035D0F820351C
:104030009AE7022E14BF022103212046039301F0C8
:10404000E5FE039B032B03D0022E07D1012BD7D112
:10405000009A2146384601F008FFD1E7032ECFD160
:10406000022BF4E795FAA5F3B3FA83F304FA03F20B
:1040700025EA020503F5A2720BEB430359F822204F
:10408000B3F87C10C2F30142384601F0EEFE62E75D
:10409000B3720000946C0000B3720000044AD2F8BE
:1040A0000034DB07FBD50160BFF35F8F704700BFB3
:1040B00000E001404FF080531A69B0FBF2F302FBBD
:1040C00013036BB9084B0222C3F80425C3F8080593
:1040D000D3F80024D207FBD50020C3F804057047AD
:1040E0006FF00C00704700BF00E0014010B5054CB8
:1040F0000123C4F80435FFF7D1FF0023C4F80435C9
:1041000010BD00BF00E00140F0B5816885B01039F6
:10411000054621F0070400F08AFE0B4B6A4603F1C6
:10412000100718685968164603C60833BB42324662
:10413000F7D110236A462146284600F047FE003892
:1041400018BF012005B0F0BDE26C000030B50D468F
:10415000816887B0102302AA1039044600F021FEBE
:10416000002802DA012007B030BD102202A9204643
:1041700002F0F3F800283AD11E49102202A802F0FA
:1041800068FA00280CBF012302232B70204602F09E
:10419000D0F8012301460DF10702204600F001FE90
:1041A0000028DFDB9DF8073003F00F021B096A705F
:1041B0002B7101220DF10701204602F0CEF810B953
:1041C0006B78042B03D901236B7000232B71A26839
:1041D000183A22F00702083AA91C204602F0D0F84B
:1041E0000028BFD1E91C204602F022F9BBE70323D7
:1041F000CBE700BFE26C0000F0B53B4F46008BB050
:10420000054606A957F8260002F018F9044610B131
:10421000FF200BB0F0BD013608A957F8260002F0C8
:104220000DF901280ED1314B31490395CDE90143F8
:10423000009423460322204602F06CF82D4B08938D
:104240008DF824409DF818609DF820702A4C0022BB
:104250002078314602F073F880B36078394602F076
:104260006EF858B3A378042B03D09DF81B10994225
:1042700024D1E378042B03D09DF8231099421DD15B
:104280002379042B16D16379023BDBB2022B26D9AA
:104290001A4B1749CDE90353194B029300231846D3
:1042A000CDE90033032202F035F86079831E022B3A
:1042B000AFD9ADE79DF81A109942E4D00132032A34
:1042C00004F10604C4D10F4B029300231846CDE934
:1042D00000330749039502F01DF8012099E70A4AC7
:1042E00052F82330D5E700BFA46C0000E571000050
:1042F000A069000003010303B57200005A700000BA
:104300002A72000049720000986C000008B5124B38
:10431000A8220021184602F094F9032202610F49F5
:1043200042610F4A8161C2614FF4806202620022E1
:1043300082624262C26201660A4941661021816658
:10434000094902670346C266426711F8010D985495
:104350000132102AF9D108BD100400207B72000040
:104360001000002000000020D77200002DE9F74F58
:10437000DFF88880182606FB008700FB06664644A7
:104380007D6AD7F828C07368AC4581468B461446D1
:1043900003EB050025D83B6AA3EB050A0AF1FF3EB3
:1043A000724507D82C4402F03EF97C62012003B02C
:1043B000BDE8F08FE64472451ED85246019302F0E4
:1043C00032F9019B2C44E41A05D0706822460BEBAD
:1043D0000A0102F028F9182303FB0988C8F82440D1
:1043E000E4E70CF1FF3CACEB050C944504D3254409
:1043F00002F019F97D62D9E70020D8E71004002007
:10440000F8B5144B182700FB07751D4407FB003354
:104410000E46DB6A012B14460AD0022B14D023B9B6
:10442000284602F03EF8844208D900242046F8BD10
:10443000284602F036F8844228BF04462246314618
:10444000284602F037F8F1E72846BDE8F84002F0C8
:104450004CB800BF10040020F8B50B4B1B78532B51
:1044600004460E46174601D0FFF750FF02F06CF8E5
:104470003A46054631462046FFF7C2FF0446284625
:1044800002F06AF82046F8BD10040020034B182201
:1044900002FB00339A6A586A801A704710040020A1
:1044A00010B4084A08490023C85C12F8014D844240
:1044B00004D10133102BF7D110BC704710BCFFF7AB
:1044C00025BF00BFD77200001004002038B50A4B8A
:1044D00053F82040013053F82050A54200D838BD91
:1044E000606830B1037EDB0701D402F03EF8083487
:1044F000F3E723689847FAE7AC6C000008B5094B6E
:10450000012203201A70FFF7E1FFFDF71BFD0420D5
:10451000FFF7DCFFFBF7FCFD034A938923F001035F
:10452000938108BD11170020C005002008B50020A8
:10453000FFF7CCFF184B83F30888184C636943F4EA
:10454000007363610025E02384F82230E577257647
:104550006576A57684F82050636A43F4E0236362AD
:1045600084F82350FDF76EFEFDF762FF4FF0FF3336
:10457000A362E362FDF7F6FFFDF77EFFFCF7C0F9EB
:104580000120FFF7A3FF0220FFF7A0FF04482B46FE
:104590002A462946FDF734FF801F002000ED00E089
:1045A000FD440000024B1868984208BF0020704785
:1045B0008405002030B570B10B4B5B6898420AD07F
:1045C000036843B1D3E90421D0E90445121941EB52
:1045D0000501C3E90421D0E9003213605A600023C9
:1045E000C0E9003330BD00BF840500202DE9F0474D
:1045F000DFF8A490DFF8A480C9F800000246FFF7B6
:10460000D1FF0D4600260027D8E900134FEAE27ECD
:1046100050B1D0E9044CA2427EEB0C0A19DAA41A7C
:104620006CEB0E06C0E9044652184FF0000443EB51
:104630000E032046C8E90023C9F8004001F0DCFF62
:104640002146FFF719F985F31188BFF36F8FBDE895
:10465000F087611843EBE473C0E90467C8E900130D
:10466000FFF7A8FF01224FF00043C0E9042385F3C0
:104670001188BFF36F8F83689847EFF3118520236C
:1046800083F31288BFF36F8FD9F80020121BC9F88B
:104690000020FFF787FFB7E7041600204006002040
:1046A0002DE9F04F8378D0F8048015469A0785B03D
:1046B000074640F19F8000260878002800F09C8083
:1046C000252808D001F1010A01363946C0470028E3
:1046D00080F286808AE091F801B0BBF1250F01F1EC
:1046E000020AF1D0002401211F2C25D8ABF12002B1
:1046F000102A06D8844B01FA02F018420ED1032A80
:104700005AD0ABF13002092A08D9BBF12A0F33D1B4
:10471000630605F1040501D444F020041AF801BB36
:10472000BBF1000FE0D139462520C04700285DDBF2
:10473000023639465846C9E77F2CE2D9BBF16C0FE7
:1047400029D021D8BBF1680F2CD0BBF16A0F30D033
:10475000BBF14C0F2DD0ABF16302122A00F2A58001
:10476000DFE802F02C4EA3A3A3A34EA3A3A3A3A30D
:10477000AD9DA3A331A37700BBF12E0FDED1600660
:104780003AD444F04004C9E7BBF1740FC6D0BBF182
:104790007A0FC3D0DFE7220648BF44F4007444F028
:1047A0008004BBE7E30548BF44F4007444F480741C
:1047B000B4E744F42074B1E71024AFE715F8040B14
:1047C0000136394682E72C68504B002C08BF1C4646
:1047D000A1464B4619F8010B20B9341B1E190435AC
:1047E000514669E73946C0470028F2DABB7843F002
:1047F0000403BB704FF0FF36304605B0BDE8F08FC4
:1048000020061DD5A10545BF073525F0070555F83C
:10481000040B55F8080B00280DF10409B8BF4042FD
:1048200049464FF00A02B8BF44F4806401F021FF0A
:104830006405A0EB090956D44C460DF1040B5EE06B
:10484000E20555F8040BE6D5A3054CBF40B200B213
:10485000E1E724F01004A4B20A22200633D5A10512
:1048600045BF073525F0070555F8040B55F8080B2B
:1048700010B924F01004A4B20DF10409494601F066
:10488000F8FEE306A0EB0909D6D539463020C0472B
:104890000028ABDBBBF1000F1ED10136CCE744F0A2
:1048A000100410224FF0780BD7E74BF02002782A43
:1048B0007FF439AFCBF1780242F01002CDE7082245
:1048C0004FF0000BC9E7E30555F8040BD0D5A1055F
:1048D0004CBFC0B280B2CBE7023639465846C0471B
:1048E0000028A9DA82E7013639462D20F7E7013C96
:1048F00039461BF80400C0470028FFF677AF002CAC
:10490000F5D14E446CE700BF81280100847200009D
:1049100070477FB50BAB059303930A9B029300236B
:10492000CDE90033184600F088F907B05DF804FBC4
:104930007FB50BAB059303930A9B02930023CDE94C
:1049400000330122184600F078F907B05DF804FB47
:104950000020704730B5002985B00446154611DBAC
:1049600083688B420ED96368C068194401AA00F0BD
:10497000E6FF28B96268019B9B1A2B60029B6B6063
:1049800005B030BD6FF02100FAE7704770472DE9A0
:10499000F04706460D46174698462BB398F8004058
:1049A00093F80190DB78A40004EB430498F80230FC
:1049B0001C4444444FF0000ACA4509D3D8F80420E7
:1049C00008F1080339463046AC46BDE8F047604779
:1049D00014F8013B48F823402046FBF791FB0130D7
:1049E00004440AF1010AE7E76FF01500BDE8F0871B
:1049F000002070470FB407B504A951F8040B0191CA
:104A000000F0E8F803B05DF804EB04B07047038BE6
:104A100013F0070306D10368002B18BF032008BF5B
:104A200000207047022B05D1408BB0FA80F040097E
:104A300080007047012B04D10368002B18BF0520AC
:104A4000EDE70020704710B50C4600B111B96FF0CA
:104A5000150010BD081D00F087F80028F9D1A368E3
:104A6000032BF6D9F3E72DE9F0410D460746194629
:104A7000281D90461E4600F088F8044638B133469B
:104A8000424629463846A446BDE8F0416047BDE8A5
:104A9000F08110B4EFF31182202484F31288BFF365
:104AA0006F8F416110BC0121FBF7BCBD38B50C46CE
:104AB000054658B151B10B6843B14B6833B11C2264
:104AC000002101F0BEFD2C61002038BD6FF0150003
:104AD000FBE7F8B504460E46FFF7B5FF051E3BDBC6
:104AE000EFF31182202383F31288BFF36F8F638B60
:104AF000278B4FF6FF718B4207F007072ED0062F4A
:104B00002FD8DFE807F0182E082E180418006FF0D1
:104B10008505002303E0013363830225012382F32B
:104B20001188BFF36F8FBBB100233A463146204650
:104B3000FFF799FF10E000233360636823B9C4E9ED
:104B4000006627B13D46E4E71E606660F9E7022192
:104B50002046FBF767FD3D462846F8BD6FF00A0585
:104B6000D7E76FF00405D4E7034658B1426802F076
:104B70000302012A03D0032A04D1026812B10020E3
:104B8000986070476FF0150070474268816002F0CE
:104B90000302032A4FF0000203460CBF00681046D0
:104BA0005A60704770470020704701F03EB80346D6
:104BB000BFF35B8F53E8000F421C43E8002100293C
:104BC000F8D1BFF35B8F704708B50020FBF71EFEDE
:104BD000002008BD1FB50023CDE90201CDE9003357
:104BE0001A461946184600F028F805B05DF804FB8F
:104BF0007047002070474368DA7143681960436862
:104C000001225A71FFF7F4BF70B50E4615461946DA
:104C1000044618B9BDE87040FBF7B6BE33B1C2F325
:104C20004A231030120D184401F0FDFCC4E900566F
:104C30002046BDE87040FBF7BFBE2DE9F04F85B0C0
:104C400002AFD7E90EBA3E6B054688461446994630
:104C5000BBF1000F11D0C7F804A0CDF800A01021BF
:104C60007A6B5B460020FBF723FBB0F5006F014633
:104C700005D30C37BD46BDE8F08F5946584604F0C1
:104C8000070205F00704E40044EA821444EA4024E1
:104C900044EA065417360E4426F00706ADEB060D1F
:104CA00002ADBBF1000F07D0CDF800A07A6B5B46D8
:104CB00005F11000FBF7FCFA4B4622464146284618
:104CC000FFF7A2FFD5E7F8B506460D4614461F4686
:104CD00004B9F8BD214628463A46B047241A05448F
:104CE000F6E707B5D1E900328DF8070052680121D7
:104CF0000DF107009847002003B05DF804FB0A2877
:104D000038B504460D4602D10D20FFF7EAFF2946CB
:104D10002046FFF7E6FF002038BD2DE9F0430546A9
:104D200089B008460E8891F80090D1F808800C46AA
:104D30001746FBF76BFE011EC6F38216C9F3C209C4
:104D40001FDB4846FBF754FE03462146608851F8B6
:104D5000102B0296C2F34A22002A01EB0204C0F390
:104D60000B1008BF00210022CDE90507CDE903148F
:104D7000CDE9002241462846FBF774FE09B0BDE8A4
:104D8000F0830023E1E7002908DB8068884205D929
:104D9000401A904234BF0020012070470020704725
:104DA000704770B516461A4605460C46FFF7EBFFEE
:104DB00048B16968E8682144826814683246A446AC
:104DC000BDE8704060476FF0150070BD70B51646C5
:104DD0001A4605460C46FFF7D6FF48B16968E868F1
:104DE0002144826854683246A446BDE8704060475A
:104DF0006FF0150070BD10B50B460446FFF7C3FFFA
:104E000040B16168E068194483689B682BB1BDE8D4
:104E1000104018476FF0150010BD6FF05700FBE70A
:104E200008B5C0688368DB689847006808BD08B5A6
:104E3000C0688368DB689847407908BD30B54C6826
:104E40000368A34201D2012030BD8A682244934204
:104E500001D30020F8E7D1E90452954203D36FF063
:104E60000B038B61F5E7CA681B1B42F835304368BA
:104E7000086902EBC00253600B6901330B61E2E782
:104E800037B50C46C0B201A91546FBF7AFFF0028A5
:104E90000CDB019850B121462A46FBF7CDFF0446B2
:104EA0000198FFF77DFF204603B030BD6FF0150479
:104EB000F9E72DE9F0439DB0DDE926676846249DBA
:104EC0000C4691469846FCF7E7FF36B1002F04DD0B
:104ED0003A463146684600F0B3FB63892289E768A9
:104EE00013441F440024BC4207D32598694600F0B0
:104EF000CDFB00201DB0BDE8F0833E1BAE4228BFB5
:104F00002E463346424621464846FFF74AFF0028D0
:104F1000F0D132464146684600F092FB3444E2E765
:104F20002DE9F7430E4617469946044628B94FF037
:104F3000FF38404603B0BDE8F0830029F7D0002ACF
:104F4000F5D0CB680D891D4404230DEB03022946DF
:104F50003846FFF726FF80460028E8D1BDF8041048
:104F6000738946F60812914225D1BDF80610994280
:104F7000DDD104230DEB030229443846FFF711FF6E
:104F80000028D4D1BDF8042046F607139A42CED1AA
:104F9000C4E900679DF82830A4F80890A3727389CB
:104FA000BDF806202B44E360738913442B44043579
:104FB00063612561BDE7002BE4D0B8E72DE9F3413B
:104FC0000E4617461D46044620B94FF0FF3002B08A
:104FD000BDE8F0810368002BF7D04368002BF4D0C4
:104FE0004FF6FF78D4E90413994215D223685B8900
:104FF00023B1E3688B4204BF04312161042360685C
:105000000DEB0302FFF7CDFE0028DED1A37A2BB112
:10501000D4E903329A4201D30120D8E72389BDF8AD
:105020000610434501F1040203D0BDF804C09C45BD
:105030000BD115B1BDF804302B80236904333360E4
:105040003980236913442361C1E723691344236131
:10505000C8E748B103683BB143682BB1C0688842D8
:1050600094BF0020012070474FF0FF30704701F0DF
:10507000F0BA10B50446FFF7D3FE2378042B06D10F
:1050800000F094F8A368984204D900F09EFB00F069
:1050900088F8F7E7181A10BD70B50D46044601F000
:1050A00048F92A46A0F1080104232046BDE87040D3
:1050B000FFF777BE13B50446019101F03AF90423D6
:1050C000A0F108010DEB0302204601F075F902B0D2
:1050D00010BDFCF77DBD01292DE9F341174601D92B
:1050E00000F073FB2C2303FB0104D4F82080B8F1FB
:1050F000000FF5D0E36826891E4404230DEB03025C
:1051000031464046FFF74DFE054620B101252846B1
:1051100002B0BDE8F081BDF80420648946F60813AA
:105120009A421AD1BDF806309C4201D00325EEE721
:1051300004230DEB0302A1194046FFF732FE0028BD
:10514000E4D1BDF8042046F607139A42EED1BDF82B
:105150000610214431443960D9E7002CF1D0E5E74D
:1051600013B56E2201290346019208460AD15A6AF4
:1051700003F1280401A9FFF783FE08B9019B23600E
:1051800002B010BD022903D11A6D03F15404F1E7F6
:10519000042903D1DA6D03F16004EBE70120EFE7A6
:1051A00070474FF4A57358433030704700EB400010
:1051B0003030704773B50C4605461646FFF730FE93
:1051C000A04203D92846FFF72BFE0446A9684FF4F6
:1051D000A573303903FB14116A462846FFF7BAFB62
:1051E0000028A4BF009B336002B070BD2DE9F743D7
:1051F0001F468368994206460D46904634D25B1A94
:105200009A4231D80FB36A46FFF7A4FB041E2DDB88
:1052100008F1FF38DDF8009045446A4629463046DB
:10522000FFF798FB041E21DBDDE9008530462A46A6
:105230004146FFF7E0FD041E18DBFBF721F877B1CC
:10524000C14513D208F1FF35E7E7511E29446A46EC
:10525000FFF780FB041E09DBDDF80090DDE7454425
:105260004D4503D80135D8E74FF0FF34204603B051
:10527000BDE8F08310B412B110BCFFF7B7BF104601
:1052800010BC7047002382681946FFF7F3BF08B5CA
:105290002C2303FB0101086A08B900F096FABDE867
:1052A0000840042201F059B8F8B513460F461646D7
:1052B00000210246054600F065F9044650B9334620
:1052C00005F12C020121284600F05CF910B1002FF5
:1052D00018BF04462046F8BD00207047002110B5D5
:1052E00004460846FAF7BAFF04F12001C0B2FBF702
:1052F0007DFD70B90121FAF7B1FF04F14C01C0B294
:10530000FBF774FD28B904F158010420FBF76EFD8A
:1053100008B100F05AFA10BD10B50446806D08B10E
:10532000FFF73EFDE06C08B1FFF73AFD206A18B1C7
:10533000BDE81040FFF734BD10BD6C22002101F024
:1053400080B97FB50BAB059303930A9B02930023AF
:10535000CDE900331846FFF770FC07B05DF804FB99
:105360004379012B07D10368012B04D10079431E37
:1053700058425841704700207047F7B58B7907466F
:105380000E4623B3846D2046FFF773FEB96E0546C3
:10539000304600F0ECF805442046FFF741FD074693
:1053A0002046FFF744FD072201460DF1010001F000
:1053B00048F933798DF800306A463B462946204645
:1053C000FFF704FD003818BF012003B0F0BD046AE8
:1053D000D9E713B50C4601AA816E2046FFF7EAFE15
:1053E000002809DB0199A2680123521A2046FFF721
:1053F00041FFC00F02B010BD0120FBE737B50C46DE
:10540000C06C69461546FEF7A1FE024608B100F0E1
:10541000DCF9E979012904D0204601F023F80028BD
:10542000F5D19DF80330012B04D1204600F0F9FF9F
:105430000028ECD1A9682046FFF73CFE0028E6D101
:105440002046FEF761FE0028E1D103B030BD73B500
:105450000D460646FCF788F90128E86004D00228CA
:1054600028D020B300F0B1F9B46D002CFAD02A4650
:1054700031462046FCF7A4F8D0B9204600F059FF89
:10548000012301460DF107022046FFF78AFC98B977
:1054900001220DF10701204600F05FFF10B101234A
:1054A0008DF807309DF8073003F00F03EB710020F3
:1054B00002B070BD346AD8E70120F9E710B52C239B
:1054C00003FB0101886A4B6A013803EBC001043316
:1054D0004968914200D310BD013853F8304021444F
:1054E000F7E738B50D460446FFF7E8FF2C2303FB2A
:1054F0000544626A02EBC00311685B6852F8300031
:105500005B1A184438BD002370B51A461D461C4668
:105510008A4201D39A4205D2466A06EBC406013498
:10552000766832448B4201D39A420ED9066D06EB5F
:10553000C5068A42766805F101053344ECD39942E9
:10554000E6D89A42E4D1601E70BD8A42F9D2E3E700
:105550007FB50BAB059303930A9B02930023CDE920
:1055600000331846FFF769FB07B05DF804FB10B580
:1055700003685A1E0379013B01EB4104594304FBC4
:10558000021010BD2DE9F74305460C4690461F4614
:10559000002B45D01846FFF7E3FE014600283FD117
:1055A0002846FBF70BFD01A98146FFF775FD06466E
:1055B0004846FFF7F5FB002E40D101992846FFF73A
:1055C000A2FF3146431C0BD13B685A1E8A4215D3B9
:1055D000B4FA84F464092C2303FB0455286A15E00B
:1055E000AB6D6A6A9E680432002352F830C063448F
:1055F0009E4201D30138F8D20131E3E78B420FD14B
:10560000012C06D13B79012BE5D9A86D58B900F0E2
:10561000DCF82CB93C79022C94BF00240124DAE791
:10562000022CD8D1F1E7202342460021FFF7B9FB35
:10563000003818BF012003B0BDE8F0830120FAE76D
:10564000F8B50C4610B1F9B10AB90120F8BD8D18B2
:1056500000F128060027AC42F7D0836E5A1C826600
:10566000034414F8011B83F828103F2AF3D931466C
:10567000FCF728FBD0E9083213F5007342F1000271
:10568000C0E908328766E6E70846DFE7F8B50C466A
:10569000054600284CD000294BD08B6ED1E908215B
:1056A000D800121841F10001581C2344C4E9082114
:1056B00038284FF08002A0664FF0000783F82820BA
:1056C00004F128060BD9C0F140023946304400F0FD
:1056D00032F820463146FCF7F5FAA7663846C0F1A5
:1056E00038020021304400F026F8236A626A1BBAAF
:1056F00012BAC4E9182331462046FCF7E3FA2B1D01
:10570000211F243551F8042F03F8012C100E03F843
:10571000040C100C03F8030C100A03F8020C0433F9
:10572000AB42EFD120467022002100F004F80120A6
:10573000F8BD0846FCE700F084BF00F082BF00F02F
:1057400072BF012801D1EFF3058300F040BF01468D
:105750000068FFF7F6BF08B5FCF72AFCBDE8084073
:1057600000F022B800210120FFF7EBBF61B662B65E
:1057700080F31188BFF36F8F7047EFF31180202300
:1057800083F31288BFF36F8F704772B6002383F3E1
:105790001188BFF36F8FBFF34F8F20BF80F3118845
:1057A000BFF36F8F62B670477047202809D9B0F1F8
:1057B000004F08D80138B0FA80F0C0F11F00400057
:1057C0007047082070473E20704708B5FCF7BCFFC3
:1057D00008B5D1E904319847002008BD08B5FCF7A9
:1057E0009FFF002008BD0369C9B20C2202FB0133F0
:1057F000186C00F00700704770B50346C9B2006925
:10580000EFF31186202484F31288BFF36F8F0C25E9
:1058100005FB0104246C14F0C00401D0A24211D194
:1058200005FB010001220264002086F31188BFF30A
:105830006F8F30B95B680C2202FB01335B689847BD
:10584000002070BD4FF0FF30EFE78022FFF7D4BF9C
:10585000F8B5069F04690546C9B2EFF3118C202004
:1058600080F31288BFF36F8F0C2606FB0146306C65
:1058700000F0070EBEF1010F10D1376400268CF343
:105880001188BFF36F8F3EB90C2041430C44C4E92B
:105890000E236B685B5898473046F8BD00F0C00097
:1058A00087420CBF6FF077064FF0FF36E7E713B57E
:1058B00080240094FFF7CCFF02B010BD6FF085008C
:1058C000704710B40069CBB21C2404FB0300002114
:1058D00010BC104700F04FBAFEF7EAB9F7B51C4606
:1058E0001646002382682360A36053690D4601AA0F
:1058F00069469847019B5A1E01921BB96FF015002B
:1059000003B0F0BD0098A26847682168676085B958
:10591000B31AD0F800C0634528BF63461A4403FB9E
:1059200007112160A26002689A4206D808300090F0
:10593000E0E76B1AB3FBF7F3EBE70020E0E7134671
:105940000022FFF7CBBF2DE9F047836886B05B6983
:105950008846914601A902AA98470024A2462546F6
:10596000029BAB4202D806B0BDE8F087019F07EB6F
:10597000C50700267B6804933A68B2420AEB060327
:1059800002D801359A46EBE703940593494603A8EC
:10599000C0470028E7D0049B01361C44ECE710B553
:1059A0000C4600F0A9FC0023C4E90003184610BD12
:1059B00038B505460C4600F09FFC002D07DBA842D9
:1059C00005D9401B84428CBF0020012038BD002037
:1059D000FCE770B50D462846194616461C46FFF7EB
:1059E000E7FF38B124B122462946304600F01BFEBD
:1059F000002070BD6FF01500FBE743685B68D3F8CB
:105A000010350B600020704743685B6802EA0100B4
:105A100021EA0201C3F80805C3F80C1500207047FD
:105A200043685B680020C3F80815704743685B68EB
:105A30000020C3F80C15704743685B68D3F8042551
:105A400021EA02001140C3F80805C3F80C15002034
:105A5000704730B50369586800B30024884219D1F3
:105A600008688CB99C685860A14200D198600020F9
:105A700008602AB15A680A609A68596002B9996048
:105A800000200FE02846E9E720609868814208BFBF
:105A90009C60ECE705680446002DF3D1002AE9D1AB
:105AA0006FF0150030BDFEF713BA30B543681360D0
:105AB000057A446804EBC504A34202D36FF00100E9
:105AC00030BD5C798C4203F10803F0D10020F7E788
:105AD00043681B68D3F88004C3F8800470474268A9
